S014000057495A37353053525F4170702E7372656355
S21400700000400020C1710000A5F20000A9F20000B7
S214007010000000000000000000000000000000006B
S214007020000000000000000000000000ADF20000BC
S2140070300000000000000000B1F20000B5F2000001
S214007040BDF20000C1F20000C5F20000D5F200005B
S214007050E5F20000E9F20000EDF20000F1F20000B7
S214007060F5F20000F9F20000FDF2000001F3000066
S21400707005F300000DF3000011F3000015F3000007
S21400708019F300001DF3000021F3000025F30000B3
S21400709029F300002DF300001172000031F3000008
S2140070A035F3000039F3000030B583B000F072F914
S2140070B0314B324A1360324A1360324B324A3349FC
S2140070C003E010681860043304328B42F9D32B4B6C
S2140070D01A682F4B9A4204D1294B1A682D4B9A42B4
S2140070E000D0FEE7244B2C4A13602C4A13602C4B2E
S2140070F02C49002201E01A6004338B42FBD3264B56
S2140071001B68002B03D1254B1B68002B00D0FEE725
S21400711000F044F901A8694600F0B6F8224B234D6A
S214007120ED1AAD10002404E0A3001F4A9B589847B0
S2140071300134A542F8DC1E4B1E4DED1AAD1000249E
S21400714004E0A3001A481B5898470134A542F8DC0F
S2140071500198009908F05EFC051C174B174CE41AC2
S214007160A41004E0013CA300134A9B589847002C47
S214007170F8DC281C00F064F8BABADECA000000206A
S21400718090020020000000208048010094020020A9
S214007190785634123254769894020020382900200B
S2140071A0940200203C2900203C7200003C72000043
S2140071B03C7200003C7200003C7200003C72000012
S2140071C008B5FFF771FFC04600BEFEE70420714613
S2140071D0084202D0EFF3098001E0EFF30880714621
S2140071E00A4A104738B5051C0C1C044800F07CF809
S2140071F0281C211C00F0D6F800BEFEE7C42F0100B4
S21400720000BEFEE700BEFEE770470000E571000026
S208007210FEE7C0468A
S21400721480480100000000209402002080480100FD
S2140072240000001000000010940200203C290020FA
S20C00723400000010000000102D
S214007240FEE7C04608B50D4B1B68002B02D10C4A62
S2140072500A4B1A60094B1B68033003229043181828
S214007260084A904206D90AF011FB0C23036001205D
S214007270404202E0014A1060181C08BD9802002037
S2140072803C2900200038002001230360014B0B60DE
S2140072907047C0460400002008B50AF0F7FA5823E5
S2140072A003600120404208BD08B50AF0EFFA5823F3
S2140072B003600120404208BD08B50AF0E7FA5823EB
S2140072C00360002008BDC04608B50AF0DFFA582360
S2140072D003600120404208BD08B50AF0D7FA5823DB
S2140072E003600120404208BD0FB400B583B004AB74
S2140072F004CB0193074880210BF0C8F9011E03DD7B
S214007300044800F043F8011C081C03B008BC04B095
S2140073101847C046A0020020F0B55F4656464D46C8
S2140073204446F0B485B0041C8A46435C0E1C002B11
S2140073301BD10425281C211CABBE041C1DE0351ED9
S214007340102D00D95D46434604E022786946CA54AB
S21400735001330134AB42F8D36F464246FA544846EE
S214007360391CABBE071C761B05E010239B4600218C
S214007370884604229146002EE1D1504605B03CBC1A
S21400738090469946A246AB46F0BDC04608B5FFF704
S214007390C3FF08BD08B500F05BF808BD08B500F0EF
S2140073A057F808BD38B5041C0D1C1548FFF79CFFA0
S2140073B014482168FFF798FF13486168FFF794FFA9
S2140073C01248A168FFF790FF1148E168FFF78CFFAD
S2140073D010482169FFF788FF0F486169FFF784FFAF
S2140073E00E48A169FFF780FFE1690D48FFF77CFFB3
S2140073F00C48FFF779FF0C48291CFFF775FF38BDCE
S214007400142F0100242F0100342F0100442F010007
S214007410542F0100642F0100742F0100842F0100F7
S214007420942F0100A42F0100AC2F0100014B186817
S2140074307047C04620030020014B18687047C046BE
S21400744024030020014B186A7047C0460010004114
S21400745010B5134B1A68134B1A60134B1A68134B6C
S2140074601A60134B00221A625C6901221440A24083
S21400747059698907C90F141C8C405969090A3F22AB
S21400748011405869000C02400A48504308F074FB4B
S214007490FF21214008F070FB074B186010BDC04666
S2140074A0B8FD030010120041BCFD030004100041AB
S2140074B00010004100127A002003002038B50C1C92
S2140074C0012803D101211F4B196203E000211D4B47
S2140074D019621D4C101C211C08F04EFBC3B2012B78
S2140074E008D8184B0122DA61184A5A610125012191
S2140074F001221AE0134B0022DA613F2210400004FA
S21400750080225200104358615D6901221540AA404E
S21400751059698907C90F151C8D40EDB25969090ACA
S2140075203F2211405869000C0240094B1C60101C99
S214007530604308F021FB291C08F01EFB054B186071
S21400754038BDC0460010004100127A00000102005B
S214007550240300202003002010B5054B1C68054BB3
S2140075601C60054B1C68054B1C60FFF7A7FF10BD91
S214007570B8FD030010120041BCFD030004100041DA
S214007580002804D003228223DB051A6003E00122D0
S2140075908223DB051A6070478223DB05586070473C
S2140075A001228223DB059A607047C0468223DB05F2
S2140075B0D86880B27047C0468223DB051869C0B21F
S2140075C0431E9841C0B2704708B50020FFF7D8FFA9
S2140075D008BDC0460D4B984203D101220C4B1A60E1
S2140075E013E00C4B984203D101220B4B1A600CE0BF
S2140075F00A4B984203D10122094B1A6005E0094B59
S214007600984202D10122084B1A60704700100040D1
S2140076108010004020100040A010004000200040D5
S2140076208020004020200040A0200040012904D1F6
S214007630826820231343836003E0836820229343F9
S214007640836070470123C3607047C0464069C0B27C
S2140076507047C04682688023134383607047C046E5
S21400766083688022934383607047C04638B5051C04
S2140076700C1CFFF7F5FF21682960AB6861688A017A
S2140076801343A1688A001343E1684A001343226942
S2140076901343EF221340AB6038BDC046F0B55F46DB
S2140076A056464D464446F0B480468423DB05984251
S2140076B005D08623DB05984203D1354C02E0354CD5
S2140076C000E0354C00230126022081460422944621
S2140076D040270325AA4653E0321C9A400D68154001
S2140076E095424CD10D79012D04D1454628690243B7
S2140076F02A6101E045466A614A79484610420BD045
S2140077009A001559281C5546A84310511059051CB7
S21400771048460543155108E09A001559281C554659
S214007720A84310511559354315514A796046104201
S21400773004D09A0015590543155105E09A001059D2
S214007740051C6046854315514A792025154205D00B
S2140077509A00155920200543155104E09A00155942
S2140077602020854315514A79174204D09A001559AE
S2140077703D43155103E09A001559BD431551013399
S2140077800F2BA9D93CBC90469946A246AB46F0BD05
S214007790403000410030004180300041034B036020
S2140077A000230371622343717047C046FFFF000049
S2140077B00368081C1840431E984170474368081C1D
S2140077C01840431E98417047CBB20133FF339B00ED
S2140077D019500B0A802292009B189B001950704784
S2140077E0CAB2CB430132FF3292001350090A8022FC
S2140077F09200891889000B507047C046F0B55F4666
S21400780056464D464446F0B4944600230125214A88
S21400781092460324A346204FB946204E31E02C1C46
S2140078209C400C422CD000280BD19C00A259171C5F
S2140078305A469743A751A7593A1C67463A43A2515E
S2140078401EE001280ED19C004A46A7583A1C5F4607
S214007850BA434F46E251E259171C624617434A465E
S214007860A7500DE09C005746E259171C5A4697430E
S2140078705246A750A7583A1C67463A435746E25125
S21400788001330F2BCBDD3CBC90469946A246AB4657
S214007890F0BDC0468020004140200041002000414D
S2140078A0F0B583B0041C0D1C161C1F1C6846FFF7A1
S2140078B075FF00956B461E71201C6946FFF7EEFEAD
S2140078C08421C9058C4205D10020291C3A1CFFF7EB
S2140078D095FF0EE08623DB059C4205D10120291C7E
S2140078E03A1CFFF78BFF04E00220291C3A1CFFF726
S2140078F085FF03B0F0BDC046F8B5041C0D1C036B35
S214007900012293430363FFF79DFD00280AD12C4B09
S2140079100221A82252009950AA2252009B582948B8
S214007920D8400AE0264E0122A8235B00F250FFF75B
S2140079307DFDAA235B00F358D84008F0E5FD061C41
S2140079402B68180108F0E0FD011C301C08F0FCF95B
S214007950071C08F0C1F9061C08F0D6FD011C381CEF
S21400796008F042FC8521C90508F014FB09F096FCD6
S214007970124B114A08F018FE08F0C6F96662A062BB
S214007980E26AEE239A43A888EB88298903430B43CF
S2140079901343E26A1343E362226B0B4B1A40698976
S2140079A0AB890B431343226B13432363226B0123E0
S2140079B0134323630020F8BD000000000000E03FF2
S2140079C00010004100127A00FE3CFFFFC046C04691
S2140079D001607047006880B27047C0464368081C64
S2140079E01840431E98417047002A03D0836B194302
S2140079F0816302E0836B8B4383637047036C081CD0
S214007A001840431E98417047436C194341647047C1
S214007A1010B5041C094B1B6B022B03D0074B1B6BCA
S214007A20032B02D1FFF708FD01E0FFF7FFFC211C46
S214007A3008F0A2F8024B186110BDC04600100041C5
S214007A400060004008B5FFF7E3FF034B9968032288
S214007A500A439A60002008BD0060004003490122E6
S214007A604B681A42FCD1014B18607047006000401A
S214007A7038B5041C0D1CFFF7ABFF0822A3691A4299
S214007A80FCD1281C38BDC04610B5041CFFF7E6FF25
S214007A90201C10BD0078C0B27047C0460170704709
S214007AA030B5002407E065182D042D0C2D182D7810
S214007AB015550134A4B29C42F5D330BD70B50024F0
S214007AC007E065182D042D0C2D18165D2E70013458
S214007AD0A4B29C42F5D370BD70B50B1C141E11D019
S214007AE08504094AAD182E683604360C0722104065
S214007AF08004064A1043311C1A1C231CFFF7DEFFC5
S214007B00A4192C6070BDC0460C0201460000024657
S214007B1070B50B1C141E11D08504094AAD182E68CA
S214007B203604360C072210408004064A1043311CE7
S214007B301A1C231CFFF7B4FFA4192C6070BDC046A6
S214007B40280201460000034610B500290FD0830422
S214007B50074A9B181A681204120C07242040800457
S214007B60044C204389180904090C0818186010BD35
S214007B702802014600000346F0B54F4680B4061CB6
S214007B80141C2025AD1AA9400D1C134B9946134F03
S214007B901CE0002D05DA104B1988301CFFF714FE88
S214007BA004E04B461988301CFFF71AFE012007F048
S214007BB0BBFF3988301CFFF707FE012007F0B4FF33
S214007BC03988301CFFF70CFE6D00013C002CE0D11C
S214007BD004BC9146F0BDC0460E0000200C000020FC
S214007BE0F0B5474680B4051C002000240F4E104B0D
S214007BF0984615E047003188281CFFF7E5FD012070
S214007C0007F092FF3188281CFFF7EAFD012007F0F5
S214007C108BFF43461988281CFFF7CAFD38430134FA
S214007C200F2CE7D904BC9046F0BDC0460C000020DF
S214007C300E00002038B5041C0A4B1B884361012047
S214007C4007F072FF084D2988201CFFF7BDFD0120B4
S214007C5007F06AFF2988201CFFF7C2FD012007F005
S214007C6063FF38BD0E0000200C00002038B5041C51
S214007C70084B1B880361084D2988FFF7A5FD0120E6
S214007C8007F052FF2988201CFFF7AAFD012007F005
S214007C904BFF38BD0E0000200C000020F0B5474614
S214007CA080B400258624E40501277F42184B9846B9
S214007CB023E0201C391C2022FFF75EFF201C062133
S214007CC00422FFF759FF201C291C0522FFF754FF4A
S214007CD0201C01210522FFF74FFF201CFFF7AAFFFB
S214007CE0201CFFF77DFF061C201CFFF7BFFF002EA1
S214007CF002D0084B9E4207D10135082DD9DD4046FB
S214007D0009F066FE0025F8E7281C04BC9046F0BD86
S214007D10D42F0100FFFF000070B582B0061C0D1CBA
S214007D20141C6846FFF73AFD2B1C234300930123DF
S214007D306A461371301C6946FFF7B0FC0120211C0F
S214007D400122FFF75BFD0120291C0122FFF756FDEB
S214007D50044B1D80044B1C80FFF7A0FF034B1860EC
S214007D6002B070BD0C0000200E000020100900209C
S214007D7003781B024078C01880B270470B0A037065
S214007D80417002307047C046F0B55F4656464D46D5
S214007D904446F0B485B003900020804600263F2479
S214007DA0A1462E25AA464F1C02970C7801947542D0
S214007DB07541AC466044271C4D46AF43C02F0DD1DD
S214007DC064460019019D4F463D402D0249786918CA
S214007DD0039C61184D1C02950C780126002C18D0C7
S214007DE01B1B013B1BB2002B1CDB002E00D1001915
S214007DF0029904E00C7814702C1C01310132651EC7
S214007E00ADB2002CF6D1574617700124A0440132BB
S214007E10C9E74546002D02D12E23137001320023F8
S214007E20137001E00120404205B03CBC90469946E4
S214007E30A246AB46F0BDC04610B594B00C1C01AAD5
S214007E404B23FFF7A1FF431C02D02018043000E0AC
S214007E50002014B010BDC046F0B595B0061C0C1C32
S214007E60171C01AA4B23FFF78FFF431C48D024188A
S214007E70201CFFF77DFF251C0A350F283ED88300FF
S214007E80254AD3589F46A37A3B70E37A7B70237BC0
S214007E90BB70251C0E35637BFB702FE0301C291C45
S214007EA001AA4B23FFF770FF431C2BD02D1825E0AB
S214007EB0221C0B32A37AD3185D1C1B78ED181DE02C
S214007EC00C34301C211C01AA4B23FFF75DFF431C1A
S214007ED01AD0251812E0301C291C01AA4B23FFF7E4
S214007EE053FF431C12D02D18301C291C01AA4B230B
S214007EF0FFF74AFF431C0BD02D181435281C08E04A
S214007F00002006E0002004E0002002E0002000E060
S214007F10002015B0F0BDC046F02F0100F8B5041CD7
S214007F200E1C171C0021122209F0CEFC301CFFF795
S214007F301FFF2080B01CFFF71BFF030401D50123A1
S214007F40A37043041B0FE370430501D5012323717F
S214007F50830501D501236371C30501D50123A371F0
S214007F60030601D50123E3710F2318402072301D4C
S214007F70FFF7FEFE6081B01DFFF7FAFEA081301C01
S214007F800830FFF7F5FEE081301C0A30FFF7F0FE00
S214007F902082311C0C31002506E0301CFFF74CFF18
S214007FA0011E23D00135ADB26389AB42F5D800255A
S214007FB007E0301C3A1CFFF74FFF011E18D00135B2
S214007FC0ADB2A389AB42F4D8002301E001339BB2E3
S214007FD0E2899A42FAD8002301E001339BB2228A52
S214007FE09A42FAD8207A4342584102E0FF2000E045
S214007FF0FF2040B2F8BDC046F0B557464E4645464F
S214008000E0B494B0051C0C1C92462D4A138801332C
S21400801099B211805046FFF7B1FEED02802149006B
S214008020294389B2FFF7AAFE0121FFF7A7FE002128
S214008030FFF7A4FE0021FFF7A1FE0021FFF79EFE3A
S214008040071C01A8211C09F0BBFD01A809F0C0FD12
S21400805080B2814601AD281C2E2109F09BFD061E2C
S21400806002D0441BA4B200E04C467B1C98463C70F1
S214008070002C15D0181C291C221C09F0C6FD4346EE
S2140080801F19002E04D17B1C984600233B7007E086
S214008090631CED184B461C1B013CA4B2A146DAE754
S2140080A040460121FFF76AFE0121FFF767FE5346AF
S2140080B0C01A00B214B01CBC90469946A246F0BD49
S2140080C0240900200A4B1B680120022B0ED900222F
S2140080D0074B1A60074B1B78012B03D9054B1A7008
S2140080E0FF2003E00133034A1370002040B27047BC
S2140080F01C09002028030020034B1870034B19604E
S214008100034A044B1A8070471809002020090020F3
S2140081102211000024090020F0B5474680B48AB03A
S214008120071C0E1C9046284D2878022100220023AA
S21400813000F07AFF254C0020311C226880235B006B
S214008140FFF75AFF82B228782168352300933B1C3C
S21400815001F056FA1C4E307881041D4BC9180C6885
S214008160A4B2002C19D080235B009C4200D91C1CB2
S214008170164E31686B460E330093221C04AB01F09A
S2140081801FFB316805A84246FFF7C8FE041C0E4BCD
S214008190187800F00FFF201C10E0FFF793FF002870
S2140081A00BDBD8D1084B1878084B19683523009399
S2140081B0221C3B1C01F024FACDE7002040B20AB096
S2140081C004BC9046F0BDC0461809002020090020D7
S2140081D024020146024B1A6801321A607047C046F4
S2140081E01C09002010B51A4C21781A48FFF756FCD7
S2140081F061781948FFF752FCA1781848FFF74EFC43
S214008200E1781748FFF74AFC164C21781648FFF726
S21400821045FC61781548FFF741FCA1781448FFF744
S2140082203DFCE1781348FFF739FC134C21781348DE
S214008230FFF734FC61781248FFF730FCA17811484C
S214008240FFF72CFCE1781048FFF728FC10BDC0466D
S2140082503C03002013600046126000461160004692
S214008260106000462C0300200F6000460E6000469B
S2140082700D6000460C600046380300200B60004688
S2140082800A600046096000460860004610B5124CB9
S214008290201C8021FFF702FC201CFFF7FBFBFFF7EA
S2140082A0A1FF0E4C21780E48FFF7F8FB61780D48C9
S2140082B0FFF7F4FBA1780C48FFF7F0FBE1780B48DA
S2140082C0FFF7ECFB21790A48FFF7E8FB61790948DC
S2140082D0FFF7E4FB10BDC046002300464003002025
S2140082E003600046026000460160004600600046EB
S2140082F0076000460660004610B5114C201C802121
S214008300FFF7CCFB201CFFF7C5FB0E4C21780E4870
S214008310FFF7C4FB61780D48FFF7C0FBA1780C4857
S214008320FFF7BCFBE1780B48FFF7B8FB21790A485A
S214008330FFF7B4FB61790948FFF7B0FB10BDC046F4
S214008340002300464003002003600046026000460B
S2140083500160004600600046076000460660004672
S21400836010B50B4C0B4B1C600B4C0C4B1C600C4C98
S2140083700C4B1C60002801D0064B1860002901D069
S214008380064B1960002A01D0064B1A6010BDC04685
S214008390E5810000180000208D82000014000020F7
S2140083A0F98200001C00002010B5324A0123116833
S2140083B00B7011684B70062311688B700020002329
S2140083C01168C87011682C4A1268140E0C71140CCF
S2140083D04C71140A8C71CA71088180228A7200223C
S2140083E0CA720B734B738B73CB730B744B748B7497
S2140083F0CB740B754B758B75CB750B764B768B7676
S214008400CB761E4B1A780A775A784A779A788A7704
S214008410DA78CA771879202288545A792123CA54E0
S2140084200623002003E0CA1810770133DBB20F2BB7
S214008430F9D90023002004E0CA182832107101334D
S214008440DBB23F2BF8D90023002004E0CA186832BC
S21400845010710133DBB25AB2002AF7DA6323EC223A
S2140084608B548220ED2288545320EE228854EF222B
S2140084708B5410BD3009002028090020400300203E
S214008480F0B5474680B484B0FFF78EFF524B1968AC
S2140084903522F023CA540123F1228B54F2228B5446
S2140084A03D20F32288540720F4228854F5228B546A
S2140084B04A4B1878F62288545878F72288549878C9
S2140084C0F8228854D8788046F92288541A79944637
S2140084D0FA22604688545F79FB23CF540C22FC2393
S2140084E0CA540022FD23CA54122200233C4D2E1CDF
S2140084F007E0501CF45C8A18E832147101339BB212
S21400850082B2E85C0028F4D1551CADB28A18E83275
S21400851040461071681C80B24D19E83562462A71D3
S214008520421C92B20818E8300771D41A0C19E434C9
S21400853003332371531C9BB28A18E832372010711C
S214008540581C80B2CB18E83306221A71431C9BB223
S2140085500818E83001240471581C80B2CB18E833A0
S21400856003241C71431C9BB20818E83002715A1C85
S21400857092B2CB18E8330F201871531C9BB28A189E
S214008580E8323A2010715A1C92B2CB18E8333B20DE
S2140085901871531C9BB28A18E832FF2010713820DD
S2140085A0FF30002404E0CA18E832147101339BB28D
S2140085B08342F8D903ABFF221A705A709A70DA70A9
S2140085C0084A1078432200928922920001F018F897
S2140085D004B004BC9046F0BD3009002040030020E3
S2140085E02400002034090020F0B585B0FFF7DCFE3B
S2140085F07F4B1B78033B012B18D87E4B1B68002251
S2140086009A72DA727C4A1178197351785973917894
S2140086109973D278DA73794A117803AB1970517866
S214008620597091789970D278DA7005E003ABFF2222
S2140086301A705A709A70DA706E4B19683522F023E9
S214008640CA540123F1228B540320F22288543D2081
S214008650F32288540720F4228854F5228B54684B62
S2140086601878F62288545878F72288549878F82292
S2140086708854D8788446F92288541F79FA228F5471
S2140086805E79FB23CE5403ABDA781023FF2A2DD174
S2140086903222FC23CA540422FD23CA54564B1C78AB
S2140086A0FE200C545C78FF200C549C788020400000
S2140086B00C54D8780223FF33C854362081235B003D
S2140086C0C8540423FF33CA544C4B187882225200F5
S2140086D0885458780622FF328854987883225200AD
S2140086E08854DA780823FF33CA541C23CA18E832A1
S2140086F00C2010719A1CCB18E93300201871002347
S214008700404D05E0541C8A18E83210710133A2B2BD
S214008710E85C0028F6D1541CA4B28A18E8326046F9
S2140087201071601C80B20C19E8342771421C92B29A
S2140087300818E8300671D01A0818E43003330371BD
S214008740531C9BB28A18E832372010715A1C92B21A
S214008750CB18E83308201871531C9BB28A18E832ED
S214008760012010715A1C92B2CB18E83303201871FE
S214008770531C9BB28A18E832062010715A1C92B21B
S214008780CB18E8330F201871531C9BB28A18E832B6
S2140087903A2010715A1C92B2CB18E8333B2018715D
S2140087A0531C9BB28A18E8321F2010715A1C92B2D2
S2140087B0CB18E83321201871531C8A18E832FF20A2
S2140087C010719BB23820FF30002403E0CA18E8324C
S2140087D0147101338342F9DD0B4B18784323009361
S2140087E08922920003AB00F00BFF05B0F0BDC04637
S2140087F029030020300900203C0300202C0900201B
S21400880040030020240000203409002030B585B045
S214008810FFF7CAFD394B196800238B72CB723522DD
S214008820F023CA540123F1228B540422F2200A5466
S2140088303D24F3200C540724F4200C54F5200B544C
S2140088402F4B1C78F6200C545C78F7200C549C7840
S214008850F8200C54DC78F9200C541C79FA200C54BF
S2140088605879FB23C8543220FC23C854FD23CA542D
S214008870244B1C78FE200C545C78FF200C549D780A
S214008880802464000D55DC780223FF33CC54362454
S21400889081235B00CC540423FF33CA541A4B1C7844
S2140088A0822252008C545C780622FF328C549C78CC
S2140088B0832252008C54DA780823FF33CA54842368
S2140088C05B00C8541D233820FF30002403E0CA187C
S2140088D0E832147101338342F9DD03ABFF221A70CC
S2140088E05A709A70DA70094A1078432200928922E8
S2140088F0920000F085FE05B030BDC046300900206D
S214008900400300203C0300202C09002034090020EE
S214008910F0B54F464646C0B487B05B4B1878830424
S2140089205A4A9B181A6892B20023002A00D1A5E082
S214008930574B19686D460E35009504AB00F040FFA6
S2140089402B88432B00D098E0514B1A68147F514B6C
S214008950197800238C4200D090E0547F4D4B597814
S21400896000238C4200D089E0947F4A4B99780023FC
S2140089708C4200D082E0D47F464BD97800238C42CC
S2140089807CD12023D45C434B197900238C4275D1CB
S2140089902123D45C3F4B597900238C426ED180B2A0
S2140089A0111CF03112181C1C3B4F3C4E3C4B9C4695
S2140089B03C4D60E00B78062B30D006D8012B14D047
S2140089C0002B0DD0032B1AD050E0352B0AD002D83E
S2140089D0332B2FD04AE0362B3ED0FF2B4AD045E033
S2140089E0013148E08C78033145E08B782B70CB78EA
S2140089F06B700B79AB704B79EB7006313BE04878C7
S214008A0081468B7828480370CB7843700879264BCC
S214008A1098704879D870494402312CE048788B78B1
S214008A203B70CB787B700B79BB704B79FB70091869
S214008A30023120E08B78604603601B029846CB78B4
S214008A4043441B0298460B7943441B0298464B79D5
S214008A504344036006310EE08B783370CB78737036
S214008A600B79B3704B79F370063104E08B1C4978B0
S214008A70591800E0111C91429CD3E3B258B207B0DB
S214008A800CBC90469946F0BD3409002024020146ED
S214008A903009002040030020480300202C09002055
S214008AA0200000202C0300203803002008B5044BCB
S214008AB0187800F07FFA0622024B1A7008BDC046EE
S214008AC0340900202903002070B582B0134C201C06
S214008AD0FEF7E0FF061C201C0321FEF7DFFF104B0D
S214008AE01878104B009310491122104B00F088FDA7
S214008AF0051C201C311CFEF7D1FF01230D3509D0C3
S214008B00FFF784FE0A4B19681A1C13685B1A012BC0
S214008B10FBD9002358B202B070BDC0464460004680
S214008B203409002088130000443001003C03002074
S214008B30300300200023044A13600521034A116015
S214008B40034A13707047C046300300201000002010
S214008B504C03002010B5214B1B785BB2012B23DCA5
S214008B601F4B1A681F4B1B6801249A4233D21E4BB8
S214008B701B78022B06D0042B07D0012B07D1FFF75A
S214008B807FFC04E0FFF730FD01E0FFF72DFD154BFD
S214008B9000221A601A680532114B1A600F4B1A78B9
S214008BA001321A70012416E00F4B1B78022B09D0F5
S214008BB0042B07D00124012B0BD100220A4B1A707C
S214008BC0002406E0FFF75CFC0122074B1A70012424
S214008BD0FFE7FFF7AFFF201C10BDC0464C03002088
S214008BE010000020300300202903002010B5654B3C
S214008BF01B785BB20520062B00D1C1E0624B1878CB
S214008C008004624A8018FEF745FF222806D05E4B95
S214008C10187802214422002300F006FAFFF778FEB7
S214008C20C0B2584B1A78042A00D9A5E09300584AD7
S214008C30D3589F46574B00221A705A709A70DA70B3
S214008C40FFF71EFC01224F4B1A70012497E0022802
S214008C5011D1514B1A68117C4E4B1970517C5970CA
S214008C60917C9970D27CDA70FFF7BEFC0222454BED
S214008C701A70012483E0FFF76DFF041C7FE00528CF
S214008C8017D1FFF721FF002809D0444B1B689847EF
S214008C90FFF750FF03223B4B1A7001246FE0FFF7EB
S214008CA049FF3F4B1B6898470022364B1A70012439
S214008CB065E0062806D1FFF73DFF0122314B1A700A
S214008CC001245CE0FFF746FF041C58E0354B1B68A8
S214008CD05A1C53D05B08344A1268042493424ED27E
S214008CE02C4A1178314B19705178597091789970D7
S214008CF0D278DA702E4B1A6801321A60FFF774FCCD
S214008D00FFF718FF04221F4B1A7038E0052826D1FB
S214008D100022284B1A70254B1A781E4B1B789A4255
S214008D2011D1224B5A781B4B5B789A420BD11F4BC2
S214008D309A78184B9B789A4205D11C4BDA78154BDB
S214008D40DB789A4204D01C4B1B689847032400E04B
S214008D500424FFF7EFFE03220A4B1A700FE00628E2
S214008D6006D1FFF7E7FE0122064B1A70042406E040
S214008D70FFF7F0FE041C02E0012400E00424201C9F
S214008D8010BDC046290300203409002030000146EB
S214008D90303001003C03002030090020180000207D
S214008DA01C00002020000020300300203403002098
S214008DB0280900204C03002014000020F8B5061CEB
S214008DC00D1C4948FEF766FE484C20704848FEF7E2
S214008DD061FE60704748FEF75DFEA0704648FEF7ED
S214008DE059FEE0704548FEF755FE20714448FEF7F0
S214008DF051FE031C6071227894466278A778E0786A
S214008E002179644622433A4302430A43134320D15E
S214008E10364C237008226270DC22A270E370237145
S214008E20637131480021FEF739FE61783048FEF75D
S214008E3035FEA1782F48FEF731FEE1782E48FEF782
S214008E402DFE21792D48FEF729FE61792C48FEF784
S214008E5025FE2C4B1E702C4B1D60244BD9782B4ABC
S214008E6088181A7980185B79C0184A405340C3188E
S214008E7027480360274F381C0021FEF70FFE264EBA
S214008E80301C0021FEF70AFE244D281C0021FEF7A8
S214008E9005FE234C201C0021FEF700FE381C002196
S214008EA0FEF7FCFD301C0021FEF7F8FD281C002113
S214008EB0FEF7F4FD201C0021FEF7F0FD1948002106
S214008EC0FEF7ECFD18480021FEF7E8FD17480021E4
S214008ED0FEF7E4FD16480021FEF7E0FDFFF72AFE48
S214008EE00022144B1A70F8BD0360004640030020B1
S214008EF002600046016000460060004607600046CB
S214008F0006600046340900203009002078563412E6
S214008F1028090020136000461260004611600046D3
S214008F20106000460B6000460A6000460960004676
S214008F300860004629030020024B1A6801321A60B6
S214008F407047C04630030020044B1A7802705A78E7
S214008F5042709A788270DB78C37070473C030020BA
S214008F60044B1A7802705A7842709A788270DB78CE
S214008F70C370704738030020044B1A7802705A7882
S214008F8042709A788270DB78C37070472C0300209A
S214008F90044B1A7802705A7842709A788270DB789E
S214008FA0C370704748030020014B18687047C046DE
S214008FB02000002070B5051E082D26D88604144B08
S214008FC0F418201C1021FEF769FD201CFEF762FD38
S214008FD00028FAD10F4BF0181F21FEF75FFD012184
S214008FE0A9400D4B1A888A431A806A0000210B4B51
S214008FF0D1520B4B00225A550A4BF418201CFEF790
S21400900049FD0028FAD1012000E0FF2040B270BDE3
S2140090101000014628000146500300205C03002093
S2140090205403002030000146F0B5474680B4051CC6
S2140090300E1C141C1F1C082861D8002961D00229A8
S21400904001D904295DD106233B425CD1002F0DD007
S214009050012E02D0022E04D008E021233B4205D187
S21400906053E0BA0602D57BB2002B50DA281CFFF775
S214009070A1FFAB049846284A101C40440F23391C15
S21400908099433143FEF70AFD002C0AD1234A14887F
S214009090631C9BB21380224A934202D1214A1F4B83
S2140090A01A80214A131C43441C60204B1C1C444459
S2140090B0201C0121FEF7F2FC201CFEF7EBFC00282A
S2140090C0FAD101231F40AF40194B1A8817431F805F
S2140090D00121A940174B1A888A431A806B00002189
S2140090E0154A9952154B00225A55154A141C4444E9
S2140090F0201CFEF7CFFC0028FAD0E8B208E0FF20DC
S21400910006E0FB2004E0FA2002E0FA2000E0FA2065
S21400911040B204BC9046F0BD000001462C00002082
S214009120F0FF000000C0FFFF1401014610000146DA
S2140091304E030020500300205C0300205403002050
S2140091403000014670B5051E082D27D88404174B3D
S214009150E018FEF79FFC0F231840012820D1144B7F
S214009160E618301CFEF796FC13281BD1114BE418AA
S214009170201C0221FEF792FC201CFEF78BFC002828
S214009180FAD104E0281CFFF715FFFC200BE0301C8A
S214009190FEF780FC1428F5D1012004E0FF2002E051
S2140091A0FB2000E0FD2040B270BDC0460000014636
S2140091B03000014610000146F0B5474680B4071C53
S2140091C00D1C9046082863D88604394AB018FEF766
S2140091D061FC0F23184001285CD1364BF418201C84
S2140091E0FEF758FC132857D129780A026B78D31853
S2140091F01B02AA789B181B02EA789B18013B0333D4
S2140092004CD84246002A4BD02B4BF018FEF746FCB3
S21400921069782A4AB018FEF741FCA978284BF0185E
S214009220FEF73CFCE978274AB018FEF737FC264ADA
S214009230B31842461A60254BF518281C0421FEF781
S2140092402DFC281CFEF726FC0028FAD1204B1B8894
S2140092503B41DA0712D526E0381CFEF71BFC054218
S21400926006D01C4BF0180821FEF718FCF3201AE075
S214009270201CFEF70FFC002803D113E0164AB7188F
S2140092800825201CFEF706FC1728E5D101200AE079
S214009290FF2008E0FB2006E0FD2004E0F42002E0CA
S2140092A0F52000E0FC2040B204BC9046F0BDC0466D
S2140092B0000001463000014627010146260101460E
S2140092C02501014624010146200101461000014601
S2140092D04E0300202800014620000146F8B5071E70
S2140092E0082F37D886041E4BF018FEF7D3FB0F2343
S2140092F01840012830D11B4BF418201C0821FEF71B
S214009300CDFB201CFEF7C6FB0028FAD10123181C53
S214009310B840154A118881431180144A12883A4190
S214009320002013420AD018E0301CFEF7B3FB0542BB
S21400933009D0381CFFF73EFEF3200EE00C4BF41865
S2140093400C4BF6180825201CFEF7A4FB0028EBD1D2
S214009350012002E0FF2000E0FB2040B2F8BDC0463E
S2140093600000014610000146500300204E03002076
S2140093703000014620000146F0B55F4656464D4691
S2140093804446F0B483B083460191141C082800D9E3
S21400939081E05F46BA040092494BD018FEF77AFB8C
S2140093A00F231840012879D1002C7AD0009A454B1B
S2140093B0D618301CFEF76EFB172801D01C2873D178
S2140093C0414B1B885A461341DA071ED5009B3F4A7D
S2140093D09818FEF75FFB031CC2060DD5009B3C4A9F
S2140093E098181021FEF75AFB01215B469940364B30
S2140093F01A888A431A8008E000201A0758D558466B
S214009400FFF7D8FD0D20404252E0009B314A9818E5
S214009410FEF740FB8502ADB2AC4200D8251C009B8F
S21400942098462D4B98442D4A92460123994642462B
S2140094301468A4B2301CFEF72DFB172807D01C2892
S21400944005D05846FFF7B6FD0720404230E05246AA
S21400945013883B414A461A4201D0A54227D8A54266
S214009460E5D8584601992A1CFEF736FB009B1C4A95
S2140094709C18201C2021FEF711FB201CFEF70AFB7F
S2140094800028FAD101215B4699400F4B1A880A43FF
S2140094901A80281C0CE00120404209E005204042CA
S2140094A006E00E20404203E00720404200E0002095
S2140094B003B03CBC90469946A246AB46F0BDC046BB
S2140094C000000146300001465003002020000146FF
S2140094D02800014600020146040201464E03002011
S2140094E010000146F0B55F4656464D464446F0B479
S2140094F083B083460191141C082860D8D946850499
S214009500374AA818FEF7C6FA0F231840012859D183
S214009510002C5AD0334BE818FEF7BCFA800280B213
S2140095200090A04200D300942F4A521990462F4B29
S214009530EF182F4A924643461C68A4B2381CFEF722
S214009540A9FA17281BD01C2813D1002C21D1294A90
S214009550AB181E683604360C274BE818FEF79AFA46
S214009560800286420BD15846FFF724FD0720404272
S2140095702FE05846FFF71EFD0720404229E05246DE
S21400958013884A461341DA0701D5002C20D0002C58
S214009590D1D0009BA34200D81C1C58460199221C1F
S2140095A0FEF7B6FA154AAD18281C4021FEF776FAE3
S2140095B0281CFEF76FFA0028FAD1201C09E00120CB
S2140095C0404206E00520404203E00E20404200E014
S2140095D0002003B03CBC90469946A246AB46F0BD80
S2140095E000000146200201462402014630000146E2
S2140095F04E03002004020146000201461000014608
S214009600F0B55F4656464D464446F0B483B00090EB
S2140096100191171C1C1C0CAB1D88082800D998E06B
S214009620804683049B46594A101C5844FEF732FA7B
S2140096300F231840022802D0042800D08CE0002F08
S21400964000D18CE023781B0262789B181B02A2785C
S2140096509B181B02E2789B18002B00D182E0002D9D
S21400966000D182E04A4B1E1C5E44301CFEF712FA04
S214009670422801D022287BD12178464A101C584423
S214009680FEF70CFA6178444B181C5844FEF706FAAD
S214009690A178424A101C5844FEF700FAE178404B85
S2140096A0181C5844FEF7FAF93E4A131C5B441D602A
S2140096B03D4B181C5844FEF7EDF98502ADB2AF429B
S2140096C000D83D1C394A171C5F44394B9A46012284
S2140096D091463C68A4B2301CFEF7DCF900284AD05C
S2140096E052461388424613414A461A4201D0AC42BB
S2140096F044D3AC42EDD3009801992A1CFEF7ECF94E
S2140097002C4B1C1C5C44201C2021FEF7C7F9201C97
S214009710FEF7C0F90028FAD1274A161C5E4410242A
S2140097200827301CFEF7B6F9044207D0234B181C56
S21400973058441021FEF7B2F9281C20E00742F0D06A
S2140097401E4A101C58440821FEF7A8F90D20404276
S21400975015E00120404212E0052040420FE00E20B6
S21400976040420CE00C20404209E00B20404206E05C
S2140097700720404203E00420404200E0002003B0FF
S2140097803CBC90469946A246AB46F0BD000001465A
S2140097903000014627010146260101462501014603
S2140097A0240101462001014600020146040201464A
S2140097B04E03002010000146200001462800014606
S2140097C0F0B55F4656464D464446F0B487B0051C95
S2140097D0029193460393082800D9D4E0061C80041F
S2140097E082467349081C5044FEF754F901900F2333
S2140097F00340022B02D0042B00D0C7E05A46002AB2
S21400980000D1C6E06B006B4A9B5A002B1BD16A4BFB
S2140098109846D0446948071C5744694989464246D9
S2140098201468A4B2381CFEF735F9002800D1B3E05E
S214009830484603883341D90702D5002C00D1AEE054
S214009840002CECD000E0002400225E4B5A55072383
S214009850019A1340022B02D0042B3CD071E06B001F
S214009860544A9B5A002B2AD1281C04A90822FEF72A
S2140098704FF9554B1C1C5444201C4021FEF70EF992
S214009880201CFEF707F90028FAD16846037C0399E6
S2140098900B70437C4B70837C8B70C37CCB70037DDA
S2140098A0427D1B02D318109A1380827D6B00C17D07
S2140098B0120289183F4A99528022424B5A556B0031
S2140098C03C4A9C5A5C4500D95C46281C0299221CDE
S2140098D0FEF71EF93CE06B00364A9B5A002B24D15B
S2140098E0281C04A90222FEF713F9374B1C1C54440B
S2140098F0201C4021FEF7D2F8201CFEF7CBF80028EB
S214009900FAD16846037C6A00417C1B02CB189BB2E6
S214009910284953522D4A934204D9281CFFF74AFB84
S2140099202B483DE08022274B5A556B00214A9C5A13
S2140099305C4500D95C46281C0299221CFEF7E8F814
S21400994006E0281C211CFEF7FFF86B00194A9C5203
S2140099501D490E1C5644301C4021FEF79FF8301C53
S214009960FEF798F80028FAD1124A69008B5A1B1B9A
S2140099709BB28B52002B04D0124B595D01220A4336
S2140099805A55201C0CE00120404209E005204042C8
S21400999006E00E20404203E00420404200E00020A3
S2140099A007B03CBC90469946A246AB46F0BDC046C2
S2140099B0000001465C0300202402014630000146F8
S2140099C04E0300205403002010000146EA05000064
S2140099D017FCFFFFF8B5141C082861D8072903D820
S2140099E08900354B5B589F46F62062E08004334B77
S2140099F0C0181178FEF752F801205AE08004304B68
S214009A00C0181178FEF74AF8012052E080042D4B6A
S214009A10C0181388036001204BE080042A4BC0184E
S214009A2013880360012044E08704284BF818FEF7EB
S214009A3031F80F231840012836D1254BF818FEF7C9
S214009A4029F8002832D1234BFC18201C2221FEF7CF
S214009A5025F8214BFE1808250BE0301CFEF71AF8F7
S214009A60054206D01D4BF8180821FEF717F8F3201C
S214009A701FE0201CFEF70EF80028EED1012018E0AB
S214009A808504124BE818FEF705F80F231840012846
S214009A900ED10F4BE8182178FEF700F8012008E0F9
S214009AA0FF2006E0012004E0FB2002E0FE2000E0AC
S214009AB0FB2040B2F8BDC046583001000801014600
S214009AC0040101461001014620010146000001463E
S214009AD0800101461000014620000146280001468C
S214009AE070B5041C151C082800D98AE00C2900D97A
S214009AF089E08900474B5B589F468404464BE01834
S214009B00FDF7C8FF0F2398432870012080E08404E7
S214009B10424BE018FDF7BEFF2870012078E0840471
S214009B203F4BE018FDF7B6FF2870012070E0840474
S214009B303C4BE41823681370012069E084043A4B18
S214009B40E018FDF7A7FF2870384BE018FDF7A2FFD6
S214009B506870374BE018FDF79DFFA870354BE0188E
S214009B60FDF798FFE870012052E08404324BE418B9
S214009B702368138001204BE08404274BE018FDF790
S214009B8089FF0F23184001283FD12C4BE018FDF722
S214009B9081FF288001203BE08404294BE4182368D9
S214009BA01380012034E08404264BE41823681380D5
S214009BB001202DE08404244BE018FDF76BFF28708D
S214009BC0012025E08604144BF018FDF763FF0128FA
S214009BD004D11C4BF61833682B8019E064001B4B2D
S214009BE0E35A2B80012013E080040B4BC018FDF7CE
S214009BF051FF0F231840012809D1154B1B5D2B7010
S214009C0006E0FF2004E0FE2002E0FB2000E0FB2050
S214009C1040B270BD783001000000014608010146E0
S214009C2004010146100101462701014626010146AE
S214009C302501014624010146200101468001014616
S214009C400402014624020146300001465C0300205F
S214009C5054030020F0B55F4656464D464446F0B4E1
S214009C6093B0554B9A46181CFDF714FF0090534BC3
S214009C709946181CFDF70EFF0190514B9846181C8C
S214009C80FDF708FF02904F48FDF704FF03904E488B
S214009C90FDF700FF04904D48FDF7FCFE05904C488C
S214009CA0FDF7F8FE06904B48FDF7F4FE07904A488D
S214009CB0FDF7F0FE08904948FDF7ECFE099048488D
S214009CC0FDF7E8FE0A904748FDF7E4FE0B9046488D
S214009CD0FDF7E0FE0C904548FDF7DCFE0D90444F86
S214009CE0381CFDF7D7FE0E90424E301CFDF7D2FE14
S214009CF00F90414D281CFDF7CDFE10903F4C201CC8
S214009D00FDF7C8FE11903E4B9B46181C8021FDF7C0
S214009D10C5FE5846FDF7BEFE50460099FDF7BEFE4E
S214009D2048460199FDF7BAFE40460299FDF7B6FE91
S214009D3024480399FDF7B2FE23480499FDF7AEFECA
S214009D4022480599FDF7AAFE21480699FDF7A6FECA
S214009D5020480799FDF7A2FE1F480899FDF79EFECA
S214009D601E480999FDF79AFE1D480A99FDF796FECA
S214009D701C480B99FDF792FE1B480C99FDF78EFECA
S214009D801A480D99FDF78AFE381C0E99FDF786FED7
S214009D90301C0F99FDF782FE281C1099FDF77EFEF9
S214009DA0201C1199FDF77AFE13B03CBC90469946EC
S214009DB0A246AB46F0BDC0460360004602600046C1
S214009DC001600046006000460760004606600046E8
S214009DD00B6000460A6000460960004608600046C0
S214009DE00F6000460E6000460D6000460C600046A0
S214009DF01360004612600046116000461060004680
S214009E000023004670B5061C0D1CFFF723FF002E2E
S214009E1007D11CE05AB2B25C5118C9B20133DBB2AA
S214009E2001E0002100235AB2072AF3DD49B21029C7
S214009E302FDC002408E063B29804184A8018F15C0E
S214009E40FDF72CFE0134E4B263B2072BF3DD0022EB
S214009E5000230020002D1FD005E059B2695C8A1847
S214009E60D2B20133DBB259B20729F6DD52B2102A5C
S214009E7011DC002408E063B29804094A8018E95C03
S214009E80FDF70CFE0134E4B263B2072BF3DD0020CD
S214009E9002E0FF2000E0FF2040B270BD0002014655
S214009EA02002014610B5041C01782A48FDF7F6FD8D
S214009EB061782948FDF7F2FDA1782848FDF7EEFD08
S214009EC0E1782748FDF7EAFD21792648FDF7E6FD0B
S214009ED061792548FDF7E2FDA17B2448FDF7DEFD0C
S214009EE0E17B2348FDF7DAFD217C2248FDF7D6FD0D
S214009EF0617C2148FDF7D2FDA17A2048FDF7CEFD12
S214009F00E17A1F48FDF7CAFD217B1E48FDF7C6FD16
S214009F10617B1D48FDF7C2FDA1791C48FDF7BEFD1B
S214009F20E1791B48FDF7BAFD217A1A48FDF7B6FD20
S214009F30617A1948FDF7B2FDA27C184B1A70E27CD4
S214009F405A70227D9A70627DDA70A27D144B1A7068
S214009F5010BDC04603600046026000460160004631
S214009F600060004607600046066000460B6000463C
S214009F700A60004609600046086000460F6000461A
S214009F800E6000460D6000460C60004613600046FA
S214009F901260004611600046106000467003002004
S214009FA06C03002010B5041C2A48FDF773FD2070D2
S214009FB02948FDF76FFD60702848FDF76BFDA0701F
S214009FC02748FDF767FDE0702648FDF763FD207122
S214009FD02548FDF75FFD60712448FDF75BFDA07323
S214009FE02348FDF757FDE0732248FDF753FD207424
S214009FF02148FDF74FFD60742048FDF74BFDA07229
S21400A0001F48FDF747FDE0721E48FDF743FD20732D
S21400A0101D48FDF73FFD60731C48FDF73BFDA07132
S21400A0201B48FDF737FDE0711A48FDF733FD207237
S21400A0301948FDF72FFD6072184B1A78A2745A78EB
S21400A040E2749A782275DB786375154B1B78A375D6
S21400A05010BDC04603600046026000460160004630
S21400A0600060004607600046066000460B6000463B
S21400A0700A60004609600046086000460F60004619
S21400A0800E6000460D6000460C60004613600046F9
S21400A0901260004611600046106000467003002003
S21400A0A06C03002038B5041C3823021C9A430AD1DE
S21400A0B0064D281CFDF7EEFC0443E1B2281CFDF714
S21400A0C0EDFC002000E0FF2040B238BD0023004633
S21400A0D008B50248FDF7DEFC08BDC0460023004672
S21400A0E010B5041C01780348FDF7D8FC6288024BC3
S21400A0F01A6010BD446000464060004610B5041C5F
S21400A1000348FDF7C7FC2070024B1B68638010BD38
S21400A110446000464060004610B50C1C052820D858
S21400A1208000114B1B589F46081CFFF7BBFE002003
S21400A13018E0081CFFF736FF002013E00878FFF74A
S21400A140B1FF0FE0FFF7C4FF207000200AE0081CF4
S21400A150FFF7C6FF002005E0081CFFF7CFFF002032
S21400A16000E0FF2040B210BDAC30010038B5041C42
S21400A17003F050F8051C03F04DF8052C1BD8A4007E
S21400A180144B1B599F4601222B1C29335A7012E090
S21400A19002222B1C29335A700DE003222B1C293374
S21400A1A05A7008E004222B1C29335A7003E005225B
S21400A1B02B1C29335A7029356B78022B04D10220C8
S21400A1C0012102F00DFA03E00220002102F008FA55
S21400A1D038BDC046C430010008B503F01BF829306E
S21400A1E0407808BDF0B557464E464546E0B403F005
S21400A1F011F8061C504B1988504B18880818504BFD
S21400A2001B88C01A05F05CFD8AB290464D4B1C8830
S21400A2100904090C09194C4B99421ADD331C2933E1
S21400A2205B7C002B0ED0012A0CD1002002F0F2FC41
S21400A230464B1855321C2932527C424908881B5C12
S21400A2409A4273D03F4B1A8880231B019B1A9BB2FD
S21400A2509846331C29339A7BDB7B1B0213433DD184
S21400A260331C29331B7C002B3AD1331C29335B7CEF
S21400A2700024002B35D109E035886B1C3380002084
S21400A28002F0C8FC78550134A4B202E000242D4E3A
S21400A2902E4F4445F0D32B4B188847E03D886B1C67
S21400A2A03B80002002F0B6FC4B465855331C293341
S21400A2B05B7C002B06D052461088421E23498A5CDF
S21400A2C0934233D0331C2933187C002803D01D4B0F
S21400A2D01B8898422AD00134A4B206E0002400E08D
S21400A2E00024184F194B9946BA464445D6D329360A
S21400A2F0B37BF07B0002184318D0124B1C8800205A
S21400A300002C13D0124B1B78002B0FD00A4B198849
S21400A3100A4B188808180A4B1B88C01A05F0D0FC90
S21400A320002902D100220A4B1A70201C1CBC904641
S21400A3309946A246F0BDC0469E000020EC030020D1
S21400A340EA03002082030020FF07000038190020DF
S21400A3509603002008B5114B1B88002B09D0104A25
S21400A360934203D001330D4A138002E000220B4BC8
S21400A3701A800A4B1B88002B0CD102F0BDFB07F09D
S21400A38031FB07F05DFB074905F09AFC064BC91840
S21400A390024B1980014B188808BDC0469203002066
S21400A3A0FFFF000010270000B888FFFF08B5062151
S21400A3B00022FFF70FFB08BD38B5041C02F02AFF89
S21400A3C0051CA3040A4A9818FDF764FB00280DD064
S21400A3D02922AA5C032A06D0172801D01C2802D1FD
S21400A3E0201CFEF77BFF201CFEF7E4FD201C38BD7A
S21400A3F030000146F0B585B0071C0C1C02F00AFFC1
S21400A400051C01AB0022019202921A819A720A2C54
S21400A41000D90A2401A8391C221C07F04CFA4E3534
S21400A420281C07F0D5FB0023844206D1281C01A96E
S21400A430221C07F031FA43424341181C05B0F0BD18
S21400A44070B5051C02F0E6FE061C02F0E3FE041CD6
S21400A450002D12D10022234B1A700420FFF786FE2F
S21400A4604534237A002B21D01F4807F0B1FA00208C
S21400A4701E490E2202F0B0FB18E00122194B1A709A
S21400A4800120FFF773FE2923F35C022B02D1002282
S21400A490174B1A704534237A002B07D0154807F05F
S21400A4A097FA002014490E2202F096FB00230022A1
S21400A4B012490B8012490B8012490B8012490A7010
S21400A4C012490A7012490A7012490A7012490B8022
S21400A4D012490B8012490B8012490B80124B1A70DE
S21400A4E070BDC04637000020D8310100E8310100B9
S21400A4F08C030020F831010008320100820300209E
S21400A500EC030020EA030020A103002095030020AE
S21400A5108D0300208603002090030020B003002057
S21400A5207E0300208003002096030020F0B54F46EF
S21400A53080B4814600240D4E0D4F00250CE0338874
S21400A5403A5D0C49CA54581C0B4B198805F0B8FBE9
S21400A55031803D550134E4B24C45F0D30023074A20
S21400A5601370074A137004BC9146F0BDEC0300203C
S21400A57078030020380900209E0000208603002073
S21400A5808403002010B5041C02F044FE02F042FED4
S21400A5902B4B1A780023012A50D1031C9B331B78BF
S21400A5A0002B4BD0274B1B78022B02D8002B03D056
S21400A5B01AE0032B2DD035E0C0189630C179002262
S21400A5C0A14230D1204A1088204A118880B2002249
S21400A5D0884228D11E4AD45401331A4A13700122E5
S21400A5E01C4B1A7000221EE0C0189630C17901225A
S21400A5F0A14218D1144A1088144A118880B2012248
S21400A600884210D2124AD45401330E4A13700022E4
S21400A61009E00D4B1A880D4B1B8892B29A42924164
S21400A620524200E00022012A03D1064B1878FFF7B9
S21400A6307DFF0022044B1A80024B1B78181C10BDAD
S21400A6403700002084030020800300203400002010
S21400A650780300208603002038B5051C02F0DAFDDA
S21400A660041C02F0D7FD231C29335B78022B06D08E
S21400A67002D8012B05D00AE0043B012B07D80123A2
S21400A68006E02923E35C023B5A42534100E00023E4
S21400A690012B0FD145304279012A0BD1112D03D160
S21400A6A0054B1A70002305E0132D03D10022024B40
S21400A6B01A700023181C38BD3600002000230B4AF1
S21400A6C013700B4A13700B4A13700B4A13700B4A25
S21400A6D013700B4A13700B4A13700B4A13800B4A05
S21400A6E013800B4A13800B4A13807047A103002087
S21400A6F08D030020950300207C0300209603002095
S21400A700AF030020B2030020900300207E03002049
S21400A710B00300207603002010B502F07BFD041C79
S21400A72002F078FD031C9B331B78012B13D10A4BD8
S21400A7301B78012B0FD12934A27BE37B1B0213432A
S21400A74009D0064B1B78002B02D10122034B1A704E
S21400A7500022034B1A8010BD370000208D03002016
S21400A7607E030020F0B557464646C0B483B002F0DC
S21400A77051FD051C02F04EFD061C02F04BFD071CA9
S21400A7804C48FDF787F9041C4B48FDF783F98046D3
S21400A7904A48FDF77FF982464948FDF77BF93B1C9E
S21400A7A04E339B7D012B0ED1464B1B78012B0AD0D6
S21400A7B0331C45331B7A0120002B75D0424807F026
S21400A7C007F9012070E0002C12D14346002B0FD170
S21400A7D05346002B0CD100280AD1331C45331B7A74
S21400A7E00120002B60D0394807F0F2F801205BE02A
S21400A7F02B1C29339978002917D1DB78002B14D12C
S21400A8002B1C29331B79002B0FD12B1C29335B798A
S21400A810002B0AD1331C45331B7A0120002B43D072
S21400A8202B4807F0D5F801203EE08C4219D12B1CAE
S21400A8302933DB78984514D12B1C29331B799A458C
S21400A8400FD12B1C29335B7998420AD1331C453330
S21400A8501B7A0120002B27D01E4807F0B9F80120EC
S21400A86022E00020C02C1FD14346A82B1CD14E3717
S21400A8707B7D002B18D1C02916D12B1C2933DA7802
S21400A880A82A11D11B799A450DD0301C4530047A80
S21400A8900120002C08D02935687900900E4807F072
S21400A8A01BF8012000E0002003B00CBC90469A463E
S21400A8B0F0BDC046136000461260004611600046B8
S21400A8C01060004694030020183201004032010058
S21400A8D078320100BC320100F032010004281CD896
S21400A8E080000E4B1B589F4600230D4A13600D4AEE
S21400A8F013600D4A13600D4A13600EE00022084BE9
S21400A9001A600AE00022074B1A6006E00022064B97
S21400A9101A6002E00022054B1A607047DC30010026
S21400A9209803002088030020A80300209C03002032
S21400A93000293BD0012813D0002804D002281CD0C0
S21400A940032827D032E01A4B1B68013304D0184B7B
S21400A9501A688918196029E00022154B1A6025E04C
S21400A960134B1B68013304D0124B1A688918196000
S21400A9701CE000220F4B1A6018E00D4B1B680133D9
S21400A98004D00D4B1A68891819600FE000220A4B94
S21400A9901A600BE0064B1B68013304D0074B1A689D
S21400A9A08918196002E00022044B1A607047C046FE
S21400A9B09803002088030020A80300209C030020A2
S21400A9C0F0B54F464646C0B483B0051C02F022FCE4
S21400A9D0061C02F01FFC071C04F0B6FB002800D083
S21400A9E099E0FFF7FFFB041C0020211CFFF7A0FFE7
S21400A9F0002C00D18CE0A80449494018FDF74AF81D
S21400AA0017285AD003D8142800D17DE080E01C28EF
S21400AA1053D022287CD1331C29339B78002B32D18B
S21400AA20331C2933DB78002B2DD1331C29331B79BB
S21400AA30002B28D1331C29335B79002B23D1394BCB
S21400AA401B78002B13D1374B5B78002B0FD1354B7F
S21400AA509B78002B0BD1334BDB78002B07D1453787
S21400AA603B7A002B1FD0304806F0B2FF1BE02F4B7E
S21400AA701B880093281C2E49221C2A4BFEF7C0FD7B
S21400AA8080B281460FE0321C2932331C2B33117AF8
S21400AA90527A12020A430092281C2549221CFEF70D
S21400AAA0AFFD80B281464A4613B2002B30DD214B03
S21400AAB01A884946521A1A802AE01F4B1B78012B27
S21400AAC026D1281C1A49221CFEF756FC03B2002B7E
S21400AAD003DD184B1A88101A18800120211CFFF776
S21400AAE027FF2936F37D012B12D1144B1B78002B40
S21400AAF003D10122124B1A7002E000220F4B1A708B
S21400AB000022104B1A8003E000220A4B1A8002E053
S21400AB1000220D4B1A8003B00CBC90469946F0BD3F
S21400AB2030000146A403002038330100B40300209F
S21400AB303819002082030020B2030020A203002060
S21400AB4095030020B003002090030020F0B54F4688
S21400AB504646C0B483B0061C02F05CFB804602F09A
S21400AB6059FB041C02F056FB071C231C45335B797B
S21400AB70022B05D1002002F05BF9002800D0DAE0B5
S21400AB80B3046F495A181568ADB280221201954277
S21400AB9000D9151C002D47D06A4A9818FCF77AFF92
S21400ABA01C282DD0222802D0172830D128E0664B4A
S21400ABB09946664B0093301C65492A1C4B46FEF7A7
S21400ABC0FFFD644B188064484946042206F064FE84
S21400ABD000281CD05C4B1A685F4B1A60231C453358
S21400ABE01B7A002B13D05848017842788378C078B7
S21400ABF00090564800880190584806F06DFE06E022
S21400AC00301C53492A1CFEF76DFC524B188000235B
S21400AC10534A1380534A1380534B00221A704D4BED
S21400AC2019880220FFF784FE434629335B78012B00
S21400AC3005D0022B23D14D4B1B78002B1FD14E374E
S21400AC403B7D012B1BD14A4B1B78002B17D140486C
S21400AC50291CFFF7CFFB012803D10122444B1A70B1
S21400AC6002E00022424B1A7000223A4B1A80404BF8
S21400AC701B78002B03D1301CFEF730FB5BE0354B16
S21400AC801B88002B57D0231C4533DB79012B03D1BF
S21400AC9001F0AEFD00284ED04523E35C012B1AD10F
S21400ACA0002002F061F800242A4D294E05E0315DAF
S21400ACB0002001F07BFF0134A4B22B889C42F6D31F
S21400ACC0002002F083F8234C21880320FFF730FE93
S21400ACD0002323802FE0453463790024012B1FD105
S21400ACE0244B1B78012B26D106E0315D002001F0B5
S21400ACF05DFF0134A4B202E00024164D144E2988EC
S21400AD008C42F2D30320FFF713FE0022114B1A8069
S21400AD1011E0315D002001F049FF0134A4B201E0EA
S21400AD200C4D0B4E29888C42F3D30320FFF700FE10
S21400AD300022084B1A8003B00CBC90469946F0BD22
S21400AD402402014630000146A4030020B40300207C
S21400AD5038210020AC0300203000002080330100A2
S21400AD6090030020B0030020A20300208C030020E4
S21400AD70B203002036000020F0B5474680B4041C1D
S21400AD8002F048FA02F046FA061C02F043FA804641
S21400AD90A5042A4BE818FCF77DFE002822D02228BE
S21400ADA049D1274B1988274B18880818264B1B882B
S21400ADB0C01A04F085FF002903D1244B1B88002B02
S21400ADC002D0201CFFF7FCFD214BED182B689BB230
S21400ADD0002B03D11F4B1B88002B2CD0201CFFF709
S21400ADE0B5FE28E00023174A1380174A1380174A37
S21400ADF01380184A1380331C29339979DA791202A2
S21400AE000A43201C02210023FEF70EF9844212D1C9
S21400AE100520FFF7ABF92936B27BF37B1B02134301
S21400AE2001D00D4A1380434645331B7A002B02D0CF
S21400AE300A4806F0CDFD04BC9046F0BD3000014641
S21400AE409E000020EC030020EA030020820300207E
S21400AE5024020146AC03002034000020A833010081
S21400AE60F0B54F464646C0B485B0041C02F0D2F991
S21400AE7002F0D0F9061C02F0CDF9071C02F0CAF960
S21400AE808046002303936A465381A504A54BE81821
S21400AE90FCF700FE1C2800D93EE18300A24AD358E6
S21400AEA09F46331C2933197B5A7B12029F4B1B8803
S21400AEB00A439A4200D92FE100229C4B1A80FFF7E2
S21400AEC051FC012800D127E1331C2933311C2B31DA
S21400AED0187A5A7A12020243201CFEF76DF91BE11B
S21400AEE0934BE818FCF7D6FDC30754D50220FFF7AE
S21400AEF03DF9904B1B889BB2002B09D1331C29339C
S21400AF009A7ADB7A1B02134302D001228A4B1A700C
S21400AF108A4B1B889BB2002B07D1331C2933DB7D61
S21400AF20002B02D00122864B1A700122854B1A7024
S21400AF30854B1B78012B04D10023834A13707B4A70
S21400AF40138045373B7A002B18D003AF201C042112
S21400AF503A1CFEF7C5FD0A236B449846201C0521C3
S21400AF601A1CFEF7BDFD39787A78BB78F878009021
S21400AF70474638880190754806F0AEFC0023744AB0
S21400AF801380744A1380744B00221A70734BE818AF
S21400AF900121FCF783FD724B19886D4B1888081841
S21400AFA06C4B1B88C01A04F08BFE002903D16D4B36
S21400AFB01B88002B02D0201CFFF702FD6A4FED19FC
S21400AFC02B689BB2002B03D1684B1B88002B02D04A
S21400AFD0201CFFF7BBFD584B1B78012B11D1331CEF
S21400AFE02933997ADA7A1202524B1B880A439A421C
S21400AFF007D8201CFFF7E0F90023514A13704F4A88
S21400B0001380331C2933DB7D012B00D084E04C4BAE
S21400B0101B78012B00D07FE0554B1B78002B15D1F9
S21400B020331C29331A7E5B7E1B021343434A128865
S21400B03092B293420AD8002B08D0201CFFF7B6F92C
S21400B04000223E4B1A800122494B1A70484B1B784F
S21400B050012B61D12936B27EF37E1B021343374A99
S21400B060128892B2934257D8002B55D0201CFFF777
S21400B0709DF90022314B1A804EE0201CFFF766FD3A
S21400B08002E0394BED18394E2B689BB2002BF4D1F9
S21400B0903388002BF1D1201CFEF720F93CE001207C
S21400B0A0FFF764F8FFF70AFB00232E4A13802F4AA7
S21400B0B01380FFF74FF9021C201C01212123FDF706
S21400B0C0B3FF844228D143469B331B78012B08D11B
S21400B0D0331C29339A7BDB7B1B02134301D0254AA2
S21400B0E01380194B1B78002B08D12936327B737BD3
S21400B0F01B02134302D00122134B1A7045373B7ACA
S21400B100002B09D0144B1B78002B05D11A4806F0EB
S21400B1105FFC0122104B1A7005B00CBC9046994695
S21400B120F0BDC04630000146F03001007403002038
S21400B1302000014690030020A1030020B003002059
S21400B14095030020B2030020AE030020C4330100A4
S21400B150EC030020EA0300208E03002028000146AE
S21400B1609E0000208203002024020146AC0300203B
S21400B170A203002034000020F0330100F0B54F4653
S21400B1804646C0B485B0041C02F044F802F042F80B
S21400B190061C02F03FF8071C02F03CF8804600232D
S21400B1A003936A465381A146A504964BE818FCF71C
S21400B1B071FC17280BD003D8002800D1EEE01BE165
S21400B1C0182800D1EAE01C2800D1D9E014E18E4B03
S21400B1D0E818FCF75FFCC30747D50220FEF7C6FF5A
S21400B1E08A4B1B889BB2002B09D1331C29339A7AD1
S21400B1F0DB7A1B02134302D00122854B1A704346AA
S21400B2004E331B7D002B03D10122824B1A7005E0C2
S21400B2100122814B1A700022804B1A8045373B7AF8
S21400B220002B18D003AF201C04213A1CFEF758FC54
S21400B2300A236B449946201C05211A1CFEF750FC75
S21400B24039787A78BB78F87800904F46388801903D
S21400B250734806F041FB0023724A1380724A13803B
S21400B260724BE8180121FCF719FC714B19886D4BDD
S21400B270188808186C4B1B88C01A04F021FD00299A
S21400B28003D16C4B1B88002B02D0201CFFF798FBC9
S21400B290694FED192B689BB2002B03D1674B1B88B7
S21400B2A0002B02D0201CFFF751FC594B1B78012BBA
S21400B2B011D1331C2933997ADA7A1202534B1B8840
S21400B2C00A439A4207D8201CFFF776F800235C4A08
S21400B2D013705C4A1380331C2933DB7D012B33D17A
S21400B2E0574B1B78012B2FD1574B1B78002B15D1B2
S21400B2F0331C29331A7E5B7E1B021343514A128885
S21400B30092B293420AD8002B08D0201CFFF74EF8C2
S21400B31000224C4B1A8001224B4B1A704A4B1B786A
S21400B320012B11D12936B27EF37E1B021343454A08
S21400B330128892B2934207D8002B05D0201CFFF744
S21400B34035F800223F4B1A8043464E331B7D012BB7
S21400B35052D1304B1B78002B4ED1304B1A8892B20C
S21400B3603A4B9A4248D9201CFFF726F800232A4A6F
S21400B37013702A4A13803FE0201CFFF7E7FB02E029
S21400B3802D4BED182D4E2B689BB2002BF4D1338835
S21400B390002BF1D1201CFDF7A1FF2DE00120FEF7C8
S21400B3A0E5FEFFF78BF90023224A1380234A138019
S21400B3B0331C29339979DA7912020A43201C0121B9
S21400B3C02023FDF731FE814516D143469B331B787B
S21400B3D0012B07D12936B27BF37B1B02134301D026
S21400B3E01B4A1380201CFDF7ADFE45373B7A002B29
S21400B3F002D0184806F0ECFA05B00CBC9046994608
S21400B400F0BDC046300001462000014690030020F3
S21400B410A1030020B20300207C0300207603002056
S21400B42014340100EC030020EA0300202800014643
S21400B4309E0000208203002024020146AC03002068
S21400B44095030020B0030020A2030020871300000D
S21400B4503400002040340100F0B54F464646C0B4E4
S21400B46085B0041C01F0D6FE01F0D4FE061C01F0E7
S21400B470D1FE804601F0CEFE071C002303936A46E9
S21400B4805381A504CB4BE818FCF704FB1C2800D915
S21400B49022E28300C84AD3589F46C84B1B78012B2C
S21400B4A000D019E2331C2933197B5A7B1202C44B95
S21400B4B01B880A439A4200D90EE20022C04B1A802B
S21400B4C0FFF750F901280DD1201CFEF775FF002369
S21400B4D0BC4A1370BC4A1380BC4A1380B74B002288
S21400B4E01A70F9E1331C2933311C2B31187A5A7A39
S21400B4F012020243201CFDF75FFEB24A13780133A6
S21400B500DBB21370092B00D8E6E1201CFEF754FFCF
S21400B5100023AC4A1370AC4A1380AC4A1380A74B86
S21400B52000221A70D8E1A54B1B78002B00D0D3E17F
S21400B530A74B1988A44B18880818A44B1B88C01A58
S21400B54004F0BEFB002900D1C6E1201CFEF734FF44
S21400B55001229A4B1A702936337B727B12021A43E9
S21400B560974B1A80B8E19B4BE818FCF793FAC30791
S21400B57000D47CE00220FEF7F9FD974B1B889BB2B7
S21400B580002B09D1331C29339A7ADB7A1B0213432A
S21400B59002D00122914B1A70914B1B889BB2002B54
S21400B5A007D1331C2933DB7D002B02D001228D4BC3
S21400B5B01A703B1C4E331B7D002B03D07F4B1B7831
S21400B5C0012B03D10122884B1A700BE0002B09D106
S21400B5D0854B1B78002B05D10122844B1A70002264
S21400B5E0834B1A80434645331B7A002B29D0201CF8
S21400B5F0042103AAFEF774FA201C05216A460A32C3
S21400B600FEF76EFA6D4B1B78002B0DD103A8017860
S21400B61042788378C078009068460A3000880190A7
S21400B620744806F059F90CE003A80178427883784C
S21400B630C078009068460A30008801906E4806F090
S21400B6404BF95E4B1B78002B04D15F4A13805F4A90
S21400B650138004E0012B02D10022584B1A700022FE
S21400B660584B1A70654BE8180121FCF717FA584B2F
S21400B6701988554B18880818544B1B88C01A04F0B4
S21400B6801FFB002903D15E4B1B88002B02D0201C19
S21400B690FFF796F95B4BED182B689BB2002B03D196
S21400B6A0594B1B88002B02D0201CFFF74FFA4B4B40
S21400B6B01B78012B14D1331C2933997ADA7A1202BB
S21400B6C0454B1B880A439A420AD8201CFEF774FE94
S21400B6D00023444A1370424A1380384B00221A70E3
S21400B6E0331C2933DB7D012B33D13E4B1B78012BDA
S21400B6F02FD1464B1B78002B15D1331C29331A7ECD
S21400B7005B7E1B021343364A128892B293420AD8D3
S21400B710002B08D0201CFEF749FE0022304B1A8072
S21400B72001223A4B1A70394B1B78012B11D129365E
S21400B730B27EF37E1B021343294A128892B29342CA
S21400B74007D8002B05D0201CFEF730FE0022244B25
S21400B7501A801A4B1B78002B00D0BDE04E373B7D7D
S21400B760012B00D0B8E0204B1B78002B00D0B3E0B4
S21400B7701F4B1A8892B2264B9A4200D8ACE0201C87
S21400B780FEF71AFE0023194A1370194A1380A3E025
S21400B790201CFFF7DBF902E01A4BED181A4E2B6857
S21400B7A09BB2002BF4D13388002BF1D1201CFDF77F
S21400B7B095FD91E030000146643101008C030020C5
S21400B7C074030020B6030020EC030020EA030020E8
S21400B7D09E0000202000014690030020A1030020C8
S21400B7E0B003002095030020B20300207C03002055
S21400B7F07603002014340100C433010028000146FB
S21400B8008203002024020146AC030020A20300208D
S21400B810871300000120FEF7A9FC324B1B78002B93
S21400B8202BD1FEF74BFF00232F4A13802F4A13809D
S21400B830331C29339979DA7912020A43201C012134
S21400B8402123FDF7F1FB844246D19B373B78012B41
S21400B85007D12936B27BF37B1B02134301D0244A5F
S21400B8601380201CFDF76EFC434645331B7A002BE5
S21400B87032D0204806F0ACF82EE000221B4B1A808F
S21400B880FEF768FD021C201C01212023FDF7CCFBDF
S21400B890844221D19B373B78012B08D1331C2933B6
S21400B8A09A7BDB7B1B02134301D0114A1380124B99
S21400B8B01B78002B08D12936327B737B1B0213437F
S21400B8C002D001220C4B1A70434645331B7A002BDC
S21400B8D002D00A4806F07CF805B00CBC90469946A3
S21400B8E0F0BDC0468C03002082030020AC0300207D
S21400B8F03400002064340100AE0300208C340100C4
S21400B90070B5061C01F086FC051C01F083FC041CC7
S21400B91001F080FC224B1B78002B02D00021204B2C
S21400B9201970A823C35C012B38D01E4B1B78012B43
S21400B9300CD11D4B1B78012B08D1301CFEF73CFDAB
S21400B9400020FEF77DFD0022174B1A70154B1B7862
S21400B950012B23D12923EB5C012B0AD0002B04D02A
S21400B960022B0AD0032B0CD00EE0301CFFF778FA1F
S21400B9700AE0301CFFF702FC06E0301CFFF76CFD07
S21400B98002E0301CFFF7F8F9002001F029FC4534EE
S21400B9906079431E012B01D801F0A4FB70BDC046A0
S21400B9A085030020370000207D03002010B501F03D
S21400B9B031FC041C3D4B1B78002B0ED03C4B1A88E8
S21400B9C092B23C4B9A4205D0394B1A88013292B259
S21400B9D01A8002E00022364B1A80374B1B78002B69
S21400B9E00ED0364B1A8892B2324B9A4205D0334B61
S21400B9F01A88013292B21A8002E000222F4B1A8077
S21400BA002F4B1A882F4B1B8892B29A4204D22C4B8B
S21400BA101A88013292B21A802B4B1B78002B15D055
S21400BA20274B1A88274B1B8892B29A420ED1274B77
S21400BA301878032803D10122254B1A7001E0FEF77F
S21400BA4075FD0023214A13701F4A1370214B1B7883
S21400BA50002B16D02934A17BE27B12021E4B1B88DA
S21400BA600A439A4205D91C4B1A88013292B21A80B0
S21400BA7007E00022184B1A80164B1A700122174B4B
S21400BA801A70174B1B78002B0ED0164B1A8892B2E2
S21400BA90084B9A4205D0134B1A88013292B21A808C
S21400BAA002E000220F4B1A8010BDC046AE030020F5
S21400BAB074030020FFFF000095030020B003002061
S21400BAC0800300203400002086030020840300202A
S21400BAD07D0300208D0300207E03002096030020B7
S21400BAE07C03002076030020094B1B78002B0AD02D
S21400BAF0084B1A8892B2084B9A4204D0054B1A8813
S21400BB00013292B21A800122044B1A707047C04666
S21400BB10A103002090030020FFFF00008503002003
S21400BB2008B501F07BFB01F0BDFC08BD10B5002494
S21400BB3004E0201CFEF740FC0134E4B2072CF8D9E0
S21400BB4010BDC04608B5FFF7F1FF0420FEF7C6FE9D
S21400BB50BFF34F8F034A044BDA60BFF34F8FC046E4
S21400BB60FDE7C0460400FA0500ED00E01F4B1B7819
S21400BB70012B1AD11E4B1A8892B21E4B9A4205D040
S21400BB801B4B1A88013292B21A8002E00022184B30
S21400BB901A80174B1A8892B2174B9A4205D901227F
S21400BBA0164B1A700022124B1A80154B1B78012B6D
S21400BBB01AD1144B1A8892B20E4B9A4205D0114BEA
S21400BBC01A88013292B21A8002E000220D4B1A80C7
S21400BBD00C4B1A8892B2084B9A4205D901220A4B9E
S21400BBE01A700022074B1A807047C046BD0300201B
S21400BBF0C4030020FFFF000087130000BC030020E2
S21400BC00C8030020C6030020C90300200023074AFB
S21400BC101370074A1370002206490B8006490B80F2
S21400BC20064B1A70064B1A707047C046BD030020BC
S21400BC30C8030020C4030020C6030020BC03002065
S21400BC40C9030020F0B5474680B482B0041C88467D
S21400BC5001F0E0FA071C002201AB1A80261CA5049E
S21400BC60444AA818FBF716FF172808D002D8002861
S21400BC706AD079E0182867D01C2860D074E03E4B64
S21400BC80E818FBF707FFC20707D501223B4B1A70DF
S21400BC903B4BE8180121FBF701FF3A4B1B78012BC1
S21400BCA004D1201CFDF786F900205FE0364AAD1867
S21400BCB02D68ADB2002D58D080231B019D4200D9BF
S21400BCC01D1C324B1A68A9183B1CA833DE7818795D
S21400BCD0000230435E79360430439B791B060343EB
S21400BCE0994201D99D1AADB2201C41462A1CFDF787
S21400BCF0F9FB85B2254E03041B0C32689B18336093
S21400BD002B0A01A90B704870201C0222FDF734FB99
S21400BD1000221F4B1A80A837FB783A7912021A4382
S21400BD207B791B041A43BB791B061A4333689A4275
S21400BD301BD8FFF76BFF201CFDF7D0FA15E0201C80
S21400BD40FDF7CCFA002510E0201C0121114A202323
S21400BD50FDF76AF90025864207D100220B4B1A60D0
S21400BD60201CFDF7EFF900E00025281C02B004BCFB
S21400BD709046F0BD3000014620000146C803002072
S21400BD8028000146C903002024020146CC030020F7
S21400BD90C603002052C30000F8B5051C01F03AFAAD
S21400BDA0041C01F037FA061CA823E25C4020002A97
S21400BDB000D19AE0231CA833DA78197909021143D6
S21400BDC05A79120411439B791B0619434A1E474BA6
S21400BDD09A420BD94536327A002A00D185E044488B
S21400BDE0C822520205F078FD40207EE0022D59D18F
S21400BDF0331C45331B7A002B02D03E4805F06CFD01
S21400BE0000223D4B1A60022000F058FD032000F08F
S21400BE1055FD0122394B1A70394F374D0420391C15
S21400BE20FFF710FF031E0FD02868E022D20181180A
S21400BE300220334A00F07CFD0004000C2B68C0187A
S21400BE40286000222F4B1A802F4B1B78012B09D11C
S21400BE50331C45331B7A4027002B2CD02B4805F08B
S21400BE60B7FD28E02A4B1B78012B09D1331C45333C
S21400BE701B7A4027002B1ED0264805F0A9FD1AE0A5
S21400BE80231CA833D9781A7912020A43597909046F
S21400BE900A439B791B061A43174B1B689A42BDD868
S21400BEA0202708E0043D4027012D04D81A4805F055
S21400BEB08FFD402019E0A834E378227912021A4355
S21400BEC063791B041A43A3791B061A430A4B1968A5
S21400BED08A4207D14536337A8027002B02D00F4896
S21400BEE005F0FAFCFFF792FE381CF8BDFF8F010044
S21400BEF060350100C8350100B8030020BD030020EE
S21400BF0038210020C4030020BC03002004360100B2
S21400BF10C90300203C36010074360100BC3601001F
S21400BF20F0B54F464646C0B4C1B001F073F9061CE2
S21400BF3001F070F9814600A800218022520005F029
S21400BF40C3FCFF2368460370331CA833DA781979DC
S21400BF50090211435A79120411439B791B061943AF
S21400BF604A1E594B9A420DD94B4645331B7A402000
S21400BF70002B00D1A2E05548E022D20105F0ACFC2F
S21400BF8040209BE04B4645331B7A002B02D050489E
S21400BF9005F0A2FC00224F4B1A60062000F08EFC33
S21400BFA001224D4B1A704D4F4A4988463D1C0420CD
S21400BFB0391CFFF747FE031E25D0424611680022B3
S21400BFC0002905D013E0AC5C68468454013292B276
S21400BFD0FF2AF8D90131FF31013BFF3B9BB2062017
S21400BFE03F4A00F0A5FC421CFF3292B204E0062055
S21400BFF03A4A00F09DFC82B2364B196852181A6015
S21400C0000022384B1A80384B1B78012B09D14B463F
S21400C01045331B7A4024002B22D0344805F0D8FC48
S21400C0201EE0334B1B78012B09D14B4645331B7A58
S21400C0304024002B14D02F4805F0CAFC10E0331C17
S21400C040A833D9781A7912020A43597909040A439F
S21400C0509B791B061A431F4B1B689A42A7D82024BD
S21400C060331CA833D9781A7912020A43597909047D
S21400C07011439A7912060A43164B1B689A421AD144
S21400C080E020C001694600F0B9F84B4645331B7AFC
S21400C0908024002B0FD00F4B1968A836F37832791E
S21400C0A012021A4373791B041343B27912061A4319
S21400C0B0114805F011FCFFF7A9FD201C41B00CBC8F
S21400C0C090469946F0BDC046FF6F0000EC36010072
S21400C0D054370100C0030020BD0300203821002093
S21400C0E038220020C4030020BC0300209037010043
S21400C0F0C9030020C83701000038010030B5051C10
S21400C100002302E05C5DCC540133181E9042F9D344
S21400C11030BDC046F8B5054D802464002E59012771
S21400C1207F422F51024FB8472E51F8BD00E100E084
S21400C1300110FF1F08B5011CC303DB0B834210D0A0
S21400C1400D4B984203D90D4B034083420BD00B4B4B
S21400C150994210D98B039B0B8B420CD100211120E6
S21400C16003E0122001E00021102072B60022002316
S21400C170FFF7D0FF62B608BDFFFD0300FFFE030019
S21400C18008B5011CC303DB0B834206D172B613202D
S21400C19000220023FFF7BEFF62B608BDF8B5041CF8
S21400C1A00F1C151C114B984208D983039B0B834226
S21400C1B004D1002080235B009A4215D8002D04D1BC
S21400C1C0631900200A4A93420ED80020094B0A4AF7
S21400C1D0A6189E4208D972B62220211C3A1C2B1C97
S21400C1E0FFF798FF62B6281CF8BDC046FFFD0300A7
S21400C1F0FFFF0300FFFD01000000FEFF10B5C0B00A
S21400C2000023002904D11BE0CA5C6C46E2540133CB
S21400C210072BF9D9082304E0C21812786C46E254BA
S21400C2200133A72BF8D9A82303E0CA5C6846C2549A
S21400C2300133FF2BF9D916E01A786946CA54013340
S21400C240072BF9D9082304E0C21812786C46E2548A
S21400C2500133A72BF8D9A82303E01A786846C254FE
S21400C2600133FF2BF9D972B61220002100220023D9
S21400C270FFF750FF222000216A4680235B00FFF76D
S21400C28049FF62B640B010BD10B5041C00F0C2FFF6
S21400C290A022825C031CA0335B781B0213439C43E2
S21400C2A06042604110BDC04610B5041C00F0B2FFED
S21400C2B0031CA0339A78DB781B0213439C4360422E
S21400C2C0604110BD10B5041C00F0A4FF031CA03391
S21400C2D01A795B791B0213439C436042604110BD90
S21400C2E0021C002005E0131C0341012B04D0431C54
S21400C2F0D8B20328F7D900207047C046F8B5041C0A
S21400C30000F088FF051CA023C25C031CA0335B78EA
S21400C3101B021343261C23409C4250D1201CFFF7CF
S21400C320DFFF071C2B1CA0339A78DB781B02134315
S21400C33023409C4210D1224B1B5CFF2B3FD0FBF7C7
S21400C34043F9BA001F4BD0587F001F4BF95A002202
S21400C3500323FBF7A5FA32E02B1CA0331A795B798E
S21400C3601B0213431C40A6421CD14300164A9C5A8B
S21400C3708300144A9858211C01220123FBF790FAE7
S21400C380A035AB79012B06D1BF000E4BF858211C07
S21400C390FBF71AFA13E0BF000A4BF858211CFBF70C
S21400C3A01FFA0CE04200084BD45A064D8700785915
S21400C3B0211C00220123FBF773FA7B595C61F8BD50
S21400C3C048000020580000209838010070B5051C71
S21400C3D00C1C00F01FFF012C0DD1A0300279437910
S21400C3E01B0213432B4303711B0A4371281CFFF7E0
S21400C3F085FF01260FE00026002C0CD1A030027924
S21400C40043791B021343AB4303711B0A4371281C79
S21400C410FFF774FF0126281CFFF770FF301C70BD65
S21400C420F8B5041C0D1C00F0F5FE071C012D19D1F3
S21400C430201CFFF755FF164B1B5C0026FF2B21D058
S21400C440201C0021FFF7C2FFA037BA78FB781B023A
S21400C45013432343BB701B0AFB70201CFFF74EFFE1
S21400C46001260FE00026002D0CD1A037BA78FB7805
S21400C4701B021343A343BB701B0AFB70201CFFF771
S21400C4803DFF0126201CFFF739FF301CF8BDC046D3
S21400C4904800002070B5041C0E1C00F0BBFE051CF6
S21400C4A0A023C25C031CA0335B781B02134323400B
S21400C4B00020A34234D12B1CA0339A78DB781B02D1
S21400C4C013431C422CD12B1CA0331A795B791B0218
S21400C4D013432340A34223D1201CFFF701FF021C75
S21400C4E03388002B0CD1A035AB71EB7181000D4B5E
S21400C4F0C85852000C4BD15AFBF772F901200FE0D6
S21400C5000120012B0CD1A035AB710023EB719100FB
S21400C510044BC8585200044BD15AFBF755F901207A
S21400C52070BDC046580000209838010008B5FBF7DB
S21400C53033F8FBF735F8FBF73FF80028FBD1FBF79D
S21400C54035F808BD70B5041C0E1C00F063FE051C13
S21400C55000233380A023C25C031CA0335B781B023D
S21400C560134323400020A34233D1201CFFF7B8FE1C
S21400C5702B1CA0339A78DB781B0213432340A3427C
S21400C5800AD1144B1B5C0120FF2B22D0181CFFF78E
S21400C590CDFF308001201CE0A0352A796B791B0284
S21400C5A013432340A34209D182000B4BD3584000CB
S21400C5B00A4A815A181CFBF701F908E08200064B6C
S21400C5C0D3584000054A815A181CFBF7F1F8308012
S21400C5D0012070BD48000020580000209838010057
S21400C5E038B5041C0D1C00F015FE8023DB009C42B1
S21400C5F01DD1012D0DD145308379002B05D1842026
S21400C600C0058021C900FBF7EBF8002002F026FEEB
S21400C6102AE045308379002B05D18420C00580218F
S21400C620C900FBF7D1F8002002F02AFE1CE0022C1D
S21400C6301AD1012D0CD14530C379002B04D18420AA
S21400C640C0050221FBF7CCF8012002F007FE0BE044
S21400C6504530C379002B04D18420C0050221FBF7A6
S21400C660B3F8012002F00CFE38BDC04638B5041CF5
S21400C67000F0D0FD8023DB009C4213D14530837947
S21400C680002B07D18420C0058021C900FBF790F855
S21400C690051C1AE08420C0058021C900FBF78EF82F
S21400C6A0051C12E0022C10D14530C379002B06D1B0
S21400C6B08420C0050221FBF77BF8051C05E08420DA
S21400C6C0C0050221FBF774F8051C281C38BDC046BF
S21400C6D038B58425ED058024E400281C211C0122A1
S21400C6E00123FBF7DDF8281C211CFBF76DF838BD8D
S21400C6F010B58424E405201C022101220123FBF747
S21400C700CFF8201C0221FBF75FF810BD38B5842552
S21400C710ED058024E400281C211C01220123FBF7E0
S21400C720BFF8281C211CFBF75BF838BD08B50128AC
S21400C73006D18420C0058021C900FBF745F805E036
S21400C7408420C0058021C900FBF74AF808BDC04612
S21400C75008B58420C005022100220123FBF7A0F8BB
S21400C76008BDC04610B500F055FD041C031C45333B
S21400C7709B79002B02D1FFF7ABFF01E0FFF7C6FF66
S21400C7804534E379002B02D1FFF7B2FF01E0FFF753
S21400C790DFFF10BD10B500F03DFD041CFFF7E2FF03
S21400C7A04534A379012B02D10120FFF7BFFF0120FA
S21400C7B0FFF76AFD002802D00120FFF79FFD022048
S21400C7C0FFF762FD002802D00220FFF797FD042045
S21400C7D0FFF75AFD002802D00420FFF78FFD08203F
S21400C7E0FFF752FD002802D00820FFF787FD10BD96
S21400C7F008B58420C0050221FAF7DAFF08BDC04656
S21400C80010B502F0A1FC041C094A127882420ED030
S21400C810002805D18020C0000121FFF7E1FE04E0DA
S21400C8208020C0000021FFF7DBFE014B1C7010BD0E
S21400C8304C00002008B5084A138801339BB21380C9
S21400C840064A934207D90022034B1A80FFF7D8FF07
S21400C8500122034B1A7008BDFC080020E703000005
S21400C860F908002020B501280DD0002804D00228A1
S21400C87010D0032815D01AE00E48111C0622FFF728
S21400C8803DFC051C13E00C48111C1A1CFFF736FC77
S21400C890051C0CE0081C111C1A1CFFF72FFC051CBD
S21400C8A005E0081C111C1A1CFFF728FC051C281C98
S21400C8B020BDC04600FE030000FF030038B5041E7E
S21400C8C0062C12D88300174AD3589F461648FFF7FF
