:1070000000400020C171000081F3000085F3000002
:107010000000000000000000000000000000000070
:1070200000000000000000000000000089F30000E4
:1070300000000000000000008DF3000091F300004C
:1070400099F300009DF30000A1F30000B1F30000EC
:10705000C1F30000C5F30000C9F30000CDF3000048
:10706000D1F30000D5F30000D9F30000DDF30000F8
:10707000E1F30000E9F30000EDF30000F1F300009C
:10708000F5F30000F9F30000FDF3000001F4000047
:1070900005F4000009F40000117200000DF4000076
:1070A00011F4000015F4000030B583B000F068F969
:1070B000314B324A1360324A1360324B324A03E09A
:1070C000116819600433043230498B42F8D32B4BDA
:1070D0001A682F4B9A4204D1294B1A682D4B9A42B9
:1070E00000D0FEE7244B2C4A13602C4A13602C4B33
:1070F00002E000221A6004332A4A9342F9D3264B55
:107100001B68002B03D1254B1B68002B00D0FEE72A
:1071100000F03AF9694601A800F0B4F8224C234B7C
:107120001C1BA410002504E0AA001F4BD35898474D
:107130000135AC42F8DC1E4C1E4B1C1BA410002574
:1071400004E0AA001A4BD35898470135AC42F8DC4A
:107150000099019808F0C6FC0500174C174B1C1B42
:10716000A41004E0013CA200134BD3589847002C14
:10717000F8DC280000F062F8BABADECA000000208D
:107180009002002000000020A84B01009402002083
:107190007856341232547698940200203829002010
:1071A000940200203C2900203C7200003C72000048
:1071B0003C7200003C7200003C7200003C72000017
:1071C00010B5FFF771FFC04600BEFEE70420714610
:1071D000084202D0EFF3098001E0EFF30880714626
:1071E0000A4A104770B504000D00044800F07AF810
:1071F0002900200000F0CCF800BEFEE7AC32010010
:1072000000BEFEE700BEFEE770470000E57100002B
:04721000FEE7C0468F
:10721400A84B01000000002094020020A84B0100AC
:107224000000001000000010940200203C290020FF
:08723400000000100000001032
:10723C00FEE7C04610B503000C4A1268002A02D1C2
:10724C000B490A4A1160094A10680333032293431D
:10725C00C318084A934206D90AF01AFC0C2303609F
:10726C000120404201E0014A136010BD9802002049
:10727C003C2900200038002001230360014B0B60E7
:10728C007047C0460400002010B50AF001FC5823DA
:10729C0003600120404210BD10B50AF0F9FB5823E1
:1072AC0003600120404210BD10B50AF0F1FB5823D9
:1072BC000360002010BDC04610B50AF0E9FB58234E
:1072CC0003600120404210BD10B50AF0E1FB5823C9
:1072DC0003600120404210BD0FB400B583B004AB75
:1072EC0004CB0193802106480AF0CEFE002803DD72
:1072FC000100034800F03AF803B008BC04B018478A
:10730C00A0020020F0B54F464646C0B487B004003A
:10731C0001914356002B1FD10426301C211CABBEFF
:10732C00041C1CE03E00102F00D91026002305E0A1
:10733C000022A25602A9CA5401330134B342F7D336
:10734C0002AA914600224946CA540425281C4946E3
:10735C00ABBE8046BF1B00E0019F002FE2D101981D
:10736C0007B00CBC90469946F0BDC04610B5FFF76F
:10737C00C9FF10BD10B500F05BF810BD10B500F0E2
:10738C0057F810BD70B504000D001548FFF7A4FFA9
:10739C0021681448FFF7A0FF61681348FFF79CFFB2
:1073AC00A1681248FFF798FFE1681148FFF794FFB6
:1073BC0021691048FFF790FF61690F48FFF78CFFB8
:1073CC00A1690E48FFF788FFE1690D48FFF784FFBC
:1073DC000C48FFF781FF29000B48FFF77DFF70BDBC
:1073EC00FC3101000C3201001C3201002C32010076
:1073FC003C3201004C3201005C3201006C32010065
:10740C007C3201008C32010094320100014B18686F
:10741C007047C04620030020014B18687047C046D7
:10742C0024030020014B186A7047C046001000412D
:10743C0010B5134B1A68134B1A60134B1A68134B85
:10744C001A60134B00221A625A6901200240040090
:10745C0094405A695208024094405969090A3F22E3
:10746C0011405869000C10400A4B584308F0E6FBD9
:10747C00FF21214008F0E2FB074B186010BDC0460D
:10748C00B8FD030010120041BCFD030004100041C4
:10749C000010004100127A002003002070B50C008F
:1074AC00012803D101211F4B196203E000211D4B60
:1074BC0019621D4C2100100008F0C0FBC3B2012B57
:1074CC0008D8184B0122DA61184A5A6101250121AA
:1074DC0001201BE0134B0022DA610004FC22920312
:1074EC00104080225200104358615A6901210A4011
:1074FC000D0095405A6952080A409540EDB2596901
:10750C00090A3F2211405869000C1040084B1C60BE
:10751C00604308F093FB290008F090FB054B1860C2
:10752C0070BDC0460010004100127A00000102003C
:10753C00240300202003002010B5054B1C68054BCC
:10754C001C60054B1C68054B1C60FFF7A7FF10BDAA
:10755C00B8FD030010120041BCFD030004100041F3
:10756C00002804D003228223DB051A6003E00122E9
:10757C008223DB051A6070478223DB055860704755
:10758C0001228223DB059A607047C0468223DB050B
:10759C00D86880B27047C0468223DB051B69FF2088
:1075AC00184000D00120C0B27047C04610B5002072
:1075BC00FFF7D6FF10BDC0460D4B984203D10122F8
:1075CC000C4B1A6013E00C4B984203D101220B4B6D
:1075DC001A600CE00A4B984203D10122094B1A6045
:1075EC0005E0094B984202D10122084B1A60704702
:1075FC00001000408010004020100040A0100040FF
:10760C00002000408020004020200040A0200040AE
:10761C00012904D1826820231343836003E083682B
:10762C0020229343836070470123C3607047C04698
:10763C004069C0B27047C0468268802313438360A0
:10764C007047C04683688022934383607047C0466E
:10765C0070B505000C00FFF7F5FF23682B60AA68D6
:10766C0063689B011343A26892001343E2685200C3
:10767C00134322691343EF221340AB6070BDC04625
:10768C0070B58423DB05984205D08623DB05984230
:10769C0003D12C4D02E02C4D00E02C4D00224EE08D
:1076AC00012393400C681C40A34247D10C79012C58
:1076BC0003D104692343036100E043614B799B07C9
:1076CC0009D593005C590326B4435C515E590224DE
:1076DC0034435C5108E093005C590326B4435C517D
:1076EC005E59012434435C514B795B0705D59400FA
:1076FC00665904233343635104E094006359042610
:10770C00B34363514B799B0605D5940066592023EE
:10771C003343635104E0940063592026B34363510F
:10772C004B795B0605D5940066594023334363516E
:10773C0004E0940063594026B343635101320F2A8D
:10774C00AED970BD40300041003000418030004166
:10775C00034B036000230371623343717047C046CF
:10776C00FFFF000003680B4201D0012000E0002065
:10777C007047C04643680B4201D0012000E0002056
:10778C007047C046CBB20133FF339B0019500B0A34
:10779C0080229200944663449B0019507047C04667
:1077AC00CBB2CA430133FF339B001A50090A802322
:1077BC009B009C46614489000A507047F0B5002339
:1077CC0025E001249C400C4220D0002809D1114C0A
:1077DC009D002E590327BE432E512E5916432E5170
:1077EC0014E0012809D10C4C9D002E590327BE43EF
:1077FC002E512E5916432E5108E0084C9D002E593F
:10780C000327BE432E512E5916432E5101330F2BF5
:10781C00D7DDF0BD00200041402000418020004118
:10782C00F0B583B004000D0017001E006846FFF78A
:10783C008FFF00956B461F7169462000FFF720FFF4
:10784C008423DB059C4205D1320029000020FFF780
:10785C00B5FF0EE08623DB059C4205D132002900E2
:10786C000120FFF7ABFF04E0320029000220FFF7F4
:10787C00A5FF03B0F0BDC046F8B504000D00036BC6
:10788C00012293430363FFF7CDFD002809D12A4B56
:10789C000221A8225200995004329B582748D84004
:1078AC000AE0254E0122A8235B00F250FFF7AEFD43
:1078BC00AA235B00F358D84008F042FF061C2B6843
:1078CC00180108F03DFF011C301C08F063FB071C7D
:1078DC0008F02AFB060008F033FF011C381C08F0E6
:1078EC0087FD8521C90508F06FFC09F01DFE0022FB
:1078FC00134B08F063FF08F02FFB6662A062E36A8B
:10790C00EE2293431A00AB88E98828890B43034382
:10791C001343E26A1343E362226B0A4B1A406989F0
:10792C00AB890B431343226B13432363226B012359
:10793C00134323630020F8BD0010004100127A00AD
:10794C000000E03FFE3CFFFF01607047006880B222
:10795C007047C04643680B4201D0012000E0002074
:10796C007047C046002A03D0836B1943816302E041
:10797C00836B8B4383637047036C0B4201D00120F4
:10798C0000E000207047C046436C194341647047C7
:10799C0010B50400094B1B6B022B03D0074B1B6B60
:1079AC00032B02D1FFF738FD01E0FFF72FFD21007B
:1079BC0008F044F9024B186110BDC046001000419C
:1079CC000060004010B5FFF7E3FF04498A68032309
:1079DC009A4313438B60002010BDC04600600040EA
:1079EC00034B5B68DB07FBD4014B18607047C04648
:1079FC000060004070B504000D0089B2FFF7A4FFD1
:107A0C00A3691B07FCD4280070BDC04610B5040048
:107A1C0080B2FFF7E5FF200010BDC0460078C0B271
:107A2C007047C0460170704730B5002507E06C18F0
:107A3C002404240C2418247854550135ADB29D42ED
:107A4C00F5D330BD70B5002507E06C182404240C68
:107A5C002418565D26700135ADB29D42F5D370BD2C
:107A6C0070B5151E11D08004084BC6183468240458
:107A7C00240CE0235B031840054B184313000A0049
:107A8C002100FFF7DFFF2C19346070BD0C0201469A
:107A9C000000024670B5151E11D08004084BC618A4
:107AAC0034682404240CE0235B031840054B184372
:107ABC0013000A002100FFF7B7FF2C19346070BDCA
:107ACC00280201460000034610B500290FD080049F
:107ADC00074BC41823681B041B0CE02252031040F4
:107AEC00044A1043C9180904090C4118216010BD3F
:107AFC002802014600000346F8B5060015002023B5
:107B0C009B1A99400C001DE0002C05DA0F4B1988CC
:107B1C003000FFF737FE04E00C4B19883000FFF7FC
:107B2C003FFE012008F062F8094F39883000FFF75A
:107B3C0029FE012008F05AF839883000FFF730FE92
:107B4C006400013D002DDFD1F8BDC0460E000020C1
:107B5C000C000020F8B506000020002516E04400BB
:107B6C000C4F39883000FFF70DFE012008F03EF86D
:107B7C0039883000FFF714FE012008F037F8064B67
:107B8C0019883000FFF7EEFD204301350F2DE6D9A3
:107B9C00F8BDC0460C0000200E00002070B504009B
:107BAC000A4B1B884361012008F020F8084D2988F6
:107BBC002000FFF7E7FD012008F018F829882000C5
:107BCC00FFF7EEFD012008F011F870BD0E0000204B
:107BDC000C00002070B50400084B1B880361084D95
:107BEC002988FFF7CFFD012008F000F82988200034
:107BFC00FFF7D6FD012007F0F9FF70BD0E00002045
:107C0C000C00002070B5002526E08624E405202217
:107C1C00012149422000FFF76FFF042206212000BA
:107C2C00FFF76AFF052229002000FFF765FF0522F8
:107C3C0001212000FFF760FF2000FFF7AFFF2000BD
:107C4C00FFF788FF06002000FFF7C4FF002E02D0CC
:107C5C00054B9E4206D10135082DD6DD034809F0AF
:107C6C00B9FFD0E7280070BDFFFF0000BC32010057
:107C7C0070B582B006000D0014006846FFF768FD71
:107C8C002B002343009301236A461371694630008D
:107C9C00FFF7F6FC012221000120FFF78FFD0122E6
:107CAC0029000120FFF78AFD044B1D80044B1C802A
:107CBC00FFF7A8FF034B186002B070BD0C0000204A
:107CCC000E000020100900200300007800025B78F1
:107CDC00C01880B27047C04603000A0A0270023016
:107CEC0059707047F0B55F4656464D464446F0B461
:107CFC0084460020834600268246481C80460C7829
:107D0C00A5B2002E02D101208146CA443F208146F3
:107D1C0020004F46B843C02810D1002E02D1BF38E6
:107D2C008046C2442402FC25AD012C4049780C1934
:107D3C00611C6144884661460D5D0126002D1AD0F8
:107D4C005B1B013B1BB2002B1FDB002E00D1AA4496
:107D5C00414605E000254D571570250001310132D3
:107D6C006C1EA4B2002DF5D12E2414700120804677
:107D7C00C3440132C1E75B46002B02D12E33137092
:107D8C00013200231370504601E0012040423CBCFC
:107D9C0090469946A246AB46F0BDC04610B594B08D
:107DAC000C004B2301AAFFF79DFF431C02D02018A7
:107DBC00043000E0002014B010BDC046F0B595B002
:107DCC0005000C0016004B2301AAFFF78BFF431C88
:107DDC0047D024182000FFF777FF27000A370F2819
:107DEC0041D88000254B1B589F46A37A3370E37A09
:107DFC007370237BB370637BF37020000E303BE019
:107E0C004B2301AA39002800FFF76CFF431C2CD030
:107E1C00381831E021000B31A27A8B5C0132D0187A
:107E2C00081829E00C344B2301AA21002800FFF785
:107E3C0059FF431C1BD020181EE04B2301AA39000C
:107E4C002800FFF74FFF431C13D03F184B2301AA08
:107E5C0039002800FFF746FF431C0CD038181430AB
:107E6C000AE0002008E0380006E0002004E00020D2
:107E7C0002E0002000E0002015B0F0BDD832010077
:107E8C00F8B507000D0016001222002109F01EFEA5
:107E9C002800FFF719FF3880A81CFFF715FF030413
:107EAC0001D50123BB70C30A0F221340FB7043059D
:107EBC0001D501233B71830501D501237B71C305DA
:107ECC0001D50123BB71030601D50123FB710F23DF
:107EDC0018403872281DFFF7F7FE7881A81DFFF7B0
:107EEC00F3FEB88128000830FFF7EEFEF881280079
:107EFC000A30FFF7E9FE388229000C31002406E035
:107F0C002800FFF74BFF011E24D00134A4B27B895B
:107F1C009C42F5D3002407E032002800FFF74EFF07
:107F2C00011E1AD00134A4B2BB899C42F4D30023A5
:107F3C0001E001339BB2FA899342FAD3002301E0AA
:107F4C0001339BB23A8A9342FAD33B7A002B07D186
:107F5C00012006E00120404203E00120404200E005
:107F6C000020F8BDF0B557464646C0B497B00400A3
:107F7C000E0001922C4B1988013189B21980100026
:107F8C00FFF7AAFEE402802149000C43A1B2FFF7DF
:107F9C00A3FE0121FFF7A0FE0021FFF79DFE0021AB
:107FAC00FFF79AFE0021FFF797FE0700310003A8A8
:107FBC0009F00AFF03A809F00FFF83B29A4603AE3B
:107FCC002E21300009F0E8FE8046002802D0801BEC
:107FDC0084B200E054467D1C3C70002C14D022006E
:107FEC003100280009F011FF2F194346002B02D154
:107FFC007D1C3B7008E0631CF61853461C1BA4B296
:10800C00013CA3B29A46DBE701212800FFF764FE8E
:10801C000121FFF761FE019BC01A00B217B00CBC26
:10802C0090469A46F0BDC046240900200B4B1B68B5
:10803C00022B10D90022094B1A60094B1B78012B1B
:10804C0004D9074B1A700120404205E00133044A61
:10805C001370002000E001207047C0461C0900206E
:10806C0028030020034B1870034B1960034A044B80
:10807C001A807047180900202009002022110000E6
:10808C0024090020F0B58DB004000F000392284E97
:10809C00307800230022022100F076FF254D80234A
:1080AC005B002A6839000020FFF75CFF82B2296868
:1080BC00307835230093230001F040FA1C4B1878DC
:1080CC0083041D4A944663441E68B6B2002E1BD02E
:1080DC0080235B009E4200D91E00164C21680E23A3
:1080EC0002AA94466344009306AB320001F0ECFA0A
:1080FC002168039A07A8FFF7C3FE04000C4B1878FD
:10810C0000F008FF200010E0FFF790FF00280BDBC9
:10811C00D4D1084B1968064B1878352300932300EB
:10812C00320001F00BFAC9E700200DB0F0BDC046DB
:10813C00180900202009002024020146024A136875
:10814C00013313607047C0461C09002010B51A4C4F
:10815C0021781A48FFF766FC61781948FFF762FC32
:10816C00A1781848FFF75EFCE1781748FFF75AFC36
:10817C00164C21781648FFF755FC61781548FFF727
:10818C0051FCA1781448FFF74DFCE1781348FFF738
:10819C0049FC134C21781348FFF744FC61781248D2
:1081AC00FFF740FCA1781148FFF73CFCE178104840
:1081BC00FFF738FC10BDC0463C030020136000469E
:1081CC001260004611600046106000462C0300202F
:1081DC000F6000460E6000460D6000460C600046C5
:1081EC00380300200B6000460A6000460960004618
:1081FC000860004610B5124C80212000FFF712FCDD
:10820C002000FFF70BFCFFF7A1FF0E4C21780E4866
:10821C00FFF708FC61780D48FFF704FCA1780C48C7
:10822C00FFF700FCE1780B48FFF7FCFB21790A48CB
:10823C00FFF7F8FB61790948FFF7F4FB10BDC04666
:10824C000023004640030020036000460260004605
:10825C00016000460060004607600046066000466C
:10826C0010B5114C80212000FFF7DCFB2000FFF73C
:10827C00D5FB0E4C21780E48FFF7D4FB61780D48E6
:10828C00FFF7D0FBA1780C48FFF7CCFBE1780B484B
:10829C00FFF7C8FB21790A48FFF7C4FB617909484D
:1082AC00FFF7C0FB10BDC046002300464003002072
:1082BC000360004602600046016000460060004614
:1082CC00076000460660004610B50B4C0B4B1C605B
:1082DC000B4C0C4B1C600C4C0C4B1C60002801D044
:1082EC00064B1860002901D0064B1960002A01D0FA
:1082FC00064B1A6010BDC0465981000018000020C2
:10830C0001820000140000206D8200001C0000207F
:10831C0010B5324A012311680B7011684B7005338C
:10832C0011688B70002100231068C17010682C4AF2
:10833C001268140E0471140C4471140A8471C27105
:10834C000181802282720022C27203734373837391
:10835C00C373037443748374C37403754375837557
:10836C00C375037643768376C3761E4B1A780277F1
:10837C005A7842779A788277DA78C27719792022FC
:10838C0081545A792123C2541B3B04E0C2180021AA
:10839C0011770133DBB20F2BF8D9002305E0C2189B
:1083AC002C32002111700133DBB23F2BF7D90023A3
:1083BC0005E0C2186C32002111700133DBB25AB2E5
:1083CC00002AF6DA6323EC22835482210132815491
:1083DC002F39013281540132835410BD30090020F1
:1083EC002809002040030020F0B585B0FFF790FF6E
:1083FC00524B19683522F023CA54EF3BBC328B54D4
:10840C0001328B543D200132885436380132885465
:10841C0001328B544A4B1878013288545878013207
:10842C008854987801328854DF7801328F541E7941
:10843C0001328E545D79FB23CD54EE3A0133CA548C
:10844C0000220133CA54EB3B08E0581C3D4CA45CA1
:10845C00CB18EC331C70013292B283B23948805C79
:10846C000028F2D1581C80B28446C818EC30077032
:10847C00981C80B26746CF19EC373E70DE1CB6B242
:10848C000818EC300570101D301A0818EC30033247
:10849C000270181D80B28E19EC36372232705A1DBC
:1084AC0092B20818EC3006240470981D80B28A1819
:1084BC00EC3201251570DA1D92B20818EC30023539
:1084CC0005701800083080B28A18EC3214701A004B
:1084DC00093292B20818EC300934047018000A30D2
:1084EC0080B28A18EC322B3414701A000B3292B210
:1084FC000818EC30013404700C339BB28A18EC323F
:10850C00FF20107005E0CA18EC3200201070013307
:10851C009BB23822FF329342F5D903AB383A1A702A
:10852C005A709A70DA70084A107843220092E2323C
:10853C00FF3201F003F805B0F0BDC0463009002051
:10854C00400300202400002034090020F0B585B041
:10855C00FFF7DEFE814B1B78033BDBB2012B18D8F7
:10856C007F4B1B6800229A72DA727E4A117819735B
:10857C005178597391789973D278DA737A4A117861
:10858C0003AB19705178597091789970D278DA7070
:10859C0005E003ABFF221A705A709A70DA70704BB8
:1085AC0019683522F023CA54EF3BBC328B5403209C
:1085BC00013288543A3001328854363801328854AA
:1085CC0001328B54694B1878013288545878013237
:1085DC008854987801328854DF7801328F541E7990
:1085EC0001328E545D79FB23CD5403ABDB78FF2B2A
:1085FC002BD1C83A033BCA542E3A0133CA54594BB7
:10860C001C78FE200C545C7801300C549C780130A2
:10861C000C54D8780223FF33C85436200133C85485
:10862C000423FF33CA54504B18780132FF3288545C
:10863C0058780622FF328854987801328854DA78B8
:10864C000823FF33CA54EB3B00E010235A1CC81814
:10865C00EC300C24047002338A18EC3200201070B9
:10866C00002205E05C1CCB18EC3318700132A3B26D
:10867C003F48805C0028F5D1581C80B2CC18EC34F3
:10868C0027709C1CA4B20818EC300670D81C80B261
:10869C000C19EC342570141D041B0C19EC3403322A
:1086AC0022701C1DA4B20818EC30372202705A1D1F
:1086BC0092B20819EC3008240470981D80B28A1804
:1086CC00EC32073C1470DA1D92B20818EC3002340C
:1086DC0004701800083080B28A18EC32033414701D
:1086EC001A00093292B20818EC30093404701800E0
:1086FC000A3080B28A18EC322B3414701A000B3208
:10870C0092B20818EC300134047018000C3080B2AE
:10871C008A18EC321C3C14701A000D3292B20818F4
:10872C00EC30023404700E338A18EC32FF201070D7
:10873C009BB204E0CA18EC320020107001333822CE
:10874C00FF329342F6DD0B4B18784323009303ABB7
:10875C00ED3200F0F3FE05B0F0BDC0462903002059
:10876C00300900203C0300202C090020400300208D
:10877C00240000203409002030B585B0FFF7C8FD77
:10878C00374B196800238B72CB723522F033CA54E5
:10879C00EF3BBC328B54ED3AF2200A543D240130AD
:1087AC000C54363C01300C5401300B542D4B1C78BE
:1087BC0001300C545C7801300C549C7801300C5412
:1087CC00DC7801300C541C7901300C545879FB23A3
:1087DC00C85432200133C8540133CA54224B1C787C
:1087EC00CC300C545C7801300C549D78802464009F
:1087FC000D55DC780223FF33CC5436240133CC5492
:10880C000423FF33CA54194B1C780132FF328C54A9
:10881C005C780622FF328C549C7801328C54DA78C6
:10882C000823FF33CA540133C854EB3B04E0CA1885
:10883C00EC320020107001333822FF329342F6DD07
:10884C0003AB383A1A705A709A70DA70084A10787A
:10885C0043220092E232FF3200F070FE05B030BDD0
:10886C0030090020400300203C0300202C0900208C
:10887C003409002030B587B05B4B187883045B4A11
:10888C00944663441A6892B2002A00D19DE0584B7A
:10889C0019680E256D44009504AB00F015FF2B886C
:1088AC00432B00D08FE0524B1B68197F514A127832
:1088BC00914200D08BE0597F4E4A5278914200D0C1
:1088CC0087E0997F4B4A9278914200D083E0D97F20
:1088DC00484AD278914200D07FE02022995C454AE8
:1088EC00127991427BD12122995C424A5279914270
:1088FC0077D1F0331A0083B2F03BD318002460E038
:10890C001178062930D006D8012914D000290DD0B1
:10891C0003291BD050E035290AD002D8332931D095
:10892C004AE036293DD0FF294AD045E0013248E0E3
:10893C009478033245E090782F490870D0784870CD
:10894C00107988705079C87006323AE05078957872
:10895C002A490D70D5784D7015798D70951D527909
:10896C00CA70021FAA182CE05078957824490D7013
:10897C00D5784D7015798D70951D5279CA70021F7E
:10898C00AA181EE091781F4801600902D578691871
:10899C0009021579691809025579691801600632BE
:1089AC000FE0907818490870D0784870107988706A
:1089BC005079C870063204E0911C52788A1800E095
:1089CC001A009A429CD360B20CE000200AE000200E
:1089DC0008E0002006E0002004E0002002E0002077
:1089EC0000E0002007B030BD34090020240201460D
:1089FC0030090020400300202C0300203803002005
:108A0C0048030020200000202C09002010B5044B46
:108A1C00187800F07FFA0622024B1A7010BDC0467F
:108A2C00340900202903002070B582B0134C2000BB
:108A3C00FEF7F4FF060003212000FEF7F3FF104BB6
:108A4C001878104B0093104B1122104900F076FD52
:108A5C00050031002000FEF7E5FF0D350AD0FFF7C9
:108A6C008BFE0B4B1A680A4B1B689B1A012BFAD90D
:108A7C00002000E0012002B070BDC04644600046FA
:108A8C0034090020881300003C0300202C33010023
:108A9C00300300200023044A13600521034A1160AF
:108AAC00034A13707047C0463003002010000020AA
:108ABC004C03002010B5214B1B785BB2012B22DC40
:108ACC001F4B1A681F4B1B689A4234D21E4B1B78E3
:108ADC00022B06D0042B07D0012B07D1FFF784FC07
:108AEC0004E0FFF733FD01E0FFF730FD154B0022EA
:108AFC001A601B680533124A1360104A137801334D
:108B0C001370012418E0104B1B78022B08D0042B97
:108B1C0006D0012B0BD100220B4B1A70002407E05E
:108B2C00FFF762FC0122084B1A70012400E00124BB
:108B3C00FFF7B0FF00E00124200010BD4C03002023
:108B4C0010000020300300202903002010B5654BD5
:108B5C001B785BB2062B00D1BCE0634B1878800409
:108B6C00624B9C466044FEF759FF222806D05E4BB0
:108B7C00187800234422022100F006FAFFF77AFE4F
:108B8C00C0B2584B1A78042A00D9A5E09300584A71
:108B9C00D3589F46574B00221A705A709A70DA704D
:108BAC00FFF722FC01224F4B1A70012099E002289A
:108BBC0011D1514B1A68117C4E4B1970517C597064
:108BCC00917C9970D27CDA70FFF7C0FC0222454B85
:108BDC001A70012085E0FFF76DFF82E0052817D1A0
:108BEC00FFF722FF002809D0444B1B689847FFF77A
:108BFC0051FF03223B4B1A70012072E0FFF74AFF32
:108C0C003F4B1B6898470022364B1A70012068E0D6
:108C1C00062806D1FFF73EFF0122324B1A700120C5
:108C2C005FE0FFF747FF5CE0364B1B685A1C55D0E2
:108C3C005B08354A1268934252D22E4A1178334B54
:108C4C0019705178597091789970D278DA70304ADD
:108C5C00136801331360FFF779FCFFF71BFF042245
:108C6C00204B1A7004203CE0052827D10022294B08
:108C7C001A70264B1A781F4B1B789A4211D1234B32
:108C8C005A781C4B5B789A420BD1204B9A78194B33
:108C9C009B789A4205D11D4BDA78164BDB789A42B9
:108CAC0004D01D4B1B689847032400E00424FFF7F5
:108CBC00F1FE03220B4B1A70200012E0062806D19D
:108CCC00FFF7E8FE0122074B1A70042009E0FFF7BA
:108CDC00F1FE06E0052004E0012002E0042000E0A3
:108CEC00042010BD29030020340900203000014667
:108CFC00183301003C03002030090020180000202C
:108D0C001C00002020000020300300203403002031
:108D1C00280900204C03002014000020F8B50500A1
:108D2C000C004948FEF77AFE484E30704848FEF772
:108D3C0075FE70704748FEF771FEB0704648FEF73E
:108D4C006DFEF0704548FEF769FE30714448FEF741
:108D5C0065FE707132787178B378F77836790A439A
:108D6C001A433B0013433343184321D1374E00239E
:108D7C00337008227270D432B270F3703371737125
:108D8C0000213148FEF74EFE71783148FEF74AFE5D
:108D9C00B1783048FEF746FEF1782F48FEF742FED8
:108DAC0031792E48FEF73EFE71792D48FEF73AFEDA
:108DBC002C4B1D702C4B1C602448C4782B4BE21898
:108DCC0001798A1843799A1861404B409B18284ABC
:108DDC001360284F00213800FEF724FE264E002198
:108DEC003000FEF71FFE254D00212800FEF71AFE6D
:108DFC00234C00212000FEF715FE00213800FEF761
:108E0C0011FE00213000FEF70DFE00212800FEF7B8
:108E1C0009FE00212000FEF705FE00211948FEF78F
:108E2C0001FE00211848FEF7FDFD00211748FEF752
:108E3C00F9FD00211648FEF7F5FDFFF72BFE002289
:108E4C00144B1A70F8BDC046036000464003002066
:108E5C000260004601600046006000460760004664
:108E6C000660004634090020300900207856341280
:108E7C00280900201360004612600046116000466D
:108E8C00106000460B6000460A6000460960004610
:108E9C000860004629030020024A1368013313605E
:108EAC007047C04630030020044B1A7802705A7881
:108EBC0042709A788270DB78C37070473C03002054
:108ECC00044B1A7802705A7842709A788270DB7868
:108EDC00C370704738030020044B1A7802705A781C
:108EEC0042709A788270DB78C37070472C03002034
:108EFC00044B1A7802705A7842709A788270DB7838
:108F0C00C370704748030020014B18687047C04677
:108F1C002000002070B50600082825D88404144BC6
:108F2C00E51810212800FEF77DFD2800FEF776FDE0
:108F3C000028FAD11F210F4BE018FEF773FD012218
:108F4C00B2400D490B8893430B80720000210B4BF0
:108F5C00D1520B4B00229A550A4BE018FEF75EFDDE
:108F6C000028F9D1013001E00120404270BDC0461B
:108F7C001000014628000146500300205C0300202D
:108F8C005403002030000146F0B5474680B407007A
:108F9C000D0090461E0008285ED800295FD00229DB
:108FAC0001D904295BD1062333425BD1002E0DD0AD
:108FBC00012D02D0022D04D008E02123334205D12B
:108FCC0053E0B30602D573B2002B51DA3800FFF729
:108FDC00A1FFBC04294BE0180F233100994329430E
:108FEC00FEF720FD4346002B0BD1254A13889846EB
:108FFC0001339BB21380234A934202D1224A204B65
:10900C001A80224BE31842461A60214BE5180121C5
:10901C002800FEF707FD2800FEF700FD0028FAD116
:10902C0001231E40BE401B4B1A8816431E80012292
:10903C00BA4019490B8893430B807B000021174AD7
:10904C009952174B0022DA55164BE018FEF7E6FC46
:10905C000028F9D078B20DE0012040420AE005204A
:10906C00404207E00620404204E00620404201E076
:10907C000620404204BC9046F0BDC04600000146AC
:10908C002C000020F0FF000000C0FFFF140101467F
:10909C00100001464E030020500300205C0300200A
:1090AC00540300203000014670B50600082829D86A
:1090BC008404194BE018FEF7B1FC0F23184001286B
:1090CC0023D1164BE5182800FEF7A8FC13281FD156
:1090DC00134B9C46644402212000FEF7A3FC2000A5
:1090EC00FEF79CFC0028FAD105E03000FFF712FFD8
:1090FC00042040420EE02800FEF790FC1428F4D126
:10910C00133807E00120404204E00520404201E012
:10911C000320404270BDC0460000014630000146AD
:10912C0010000146F0B5474680B407000E0090468B
:10913C00082861D884043B4BE018FEF76FFC0F2322
:10914C00184001285BD1384BE5182800FEF766FC67
:10915C00132857D131780A027378D3181B02B278CE
:10916C009B181B02F2789B18013B03334DD84346E6
:10917C00002B4DD02D4BE018FEF754FC71782C4B86
:10918C00E018FEF74FFCB1782A4BE018FEF74AFCCA
:10919C00F178294BE018FEF745FC284BE3184246C2
:1091AC001A60274BE61804213000FEF73BFC300018
:1091BC00FEF734FC0028FAD1224B1B883B41DB071D
:1091CC0013D528E0204BE018FEF728FC030707D541
:1091DC001E4BE0180821FEF725FC0D2040421EE036
:1091EC002800FEF71BFC002817D02800FEF716FC01
:1091FC001728E7D1163812E0012040420FE0052075
:10920C0040420CE00320404209E00C20404206E0C2
:10921C000B20404203E0002001E00420404204BC4B
:10922C009046F0BD00000146300001462701014682
:10923C002601014625010146240101462001014673
:10924C00100001464E030020200001462800014674
:10925C0070B50600082834D884041E4BE018FEF7BD
:10926C00DDFB0F23184001282ED11B4BE5180821DC
:10927C002800FEF7D7FB2800FEF7D0FB0028FAD118
:10928C0001221000B04015490B8883430B80144B0E
:10929C001B8833411A420CD019E0124BE018FEF730
:1092AC00BDFB030705D53000FFF734FE0D2040420F
:1092BC000EE00D4BE018FEF7B1FB0028EDD10130AC
:1092CC0006E00120404203E00520404200E000207F
:1092DC0070BDC0460000014610000146500300203E
:1092EC004E0300202000014630000146F0B54746F1
:1092FC0080B482B0804601911400082874D806000E
:10930C008504434BE818FEF789FB0F23184001280E
:10931C006DD1002C6ED03F4B9C46AC446346009301
:10932C006046FEF77BFB172801D01C2865D13A4B11
:10933C001B8842461341DB071AD5384BE818FEF759
:10934C006DFBC3060CD51021354BE818FEF76AFBF4
:10935C00012243469A4030490B8893430B8007E027
:10936C0003074DD54046FFF7D5FD0D2040424AE09E
:10937C002C4BE818FEF752FB800287B2BC4200D897
:10938C002700294BEB181C68A4B20098FEF746FB8B
:10939C00172807D01C2805D04046FFF7BBFD072037
:1093AC00404230E0214B1B883341DB0701D5A742FB
:1093BC0028D8A742E5D83A0001994046FEF750FB61
:1093CC001B4BEC1820212000FEF72CFB2000FEF795
:1093DC0025FB0028FAD10123424693400E4A1188FE
:1093EC000B43138038000EE0012040420BE00520B7
:1093FC00404208E00E20404205E00720404202E0D7
:10940C00002000E0002002B004BC9046F0BDC04635
:10941C0000000146300001465003002020000146A8
:10942C002800014600020146040201464E030020BA
:10943C0010000146F0B54F464646C0B483B0814695
:10944C000191140008285AD807008604334BF018F1
:10945C00FEF7E4FA0F231840012853D1002C54D006
:10946C002F4BF018FEF7DAFA800283B298469C4232
:10947C0000D8A0462B4BF3181C68A4B22A4BF0184A
:10948C00FEF7CCFA17281BD01C2813D1002C20D1A6
:10949C00264BF3181B681B041D0C254BF018FEF70C
:1094AC00BDFA800285420BD14846FFF733FD0720F9
:1094BC0040422EE04846FFF72DFD0720404228E0B1
:1094CC001C4B1B883B41DB0701D5002C20D0002C0A
:1094DC00D0D0A04500D84446220001994846FEF75A
:1094EC00D9FA154B9C46664440213000FEF79AFA97
:1094FC003000FEF793FA0028FAD1200009E0012091
:10950C00404206E00520404203E00E20404200E0CD
:10951C00002003B00CBC90469946F0BD00000146FB
:10952C002002014624020146300001460402014695
:10953C00000201464E03002010000146F0B55F46C4
:10954C004646C0B483B08046019193461C000AABDA
:10955C001F88082800D981E0050086044D4BF018BF
:10956C00FEF75CFA0F231840022801D0042878D1AA
:10957C005B46002B78D023781B0262789B181B0269
:10958C00A2789B181B02E2789B18002B6FD0002F3F
:10959C0070D0414B9C46B444634600936046FEF742
:1095AC003DFA422801D0222867D121783B4BF01894
:1095BC00FEF738FA61783A4BF018FEF733FAA178D7
:1095CC00384BF018FEF72EFAE178374BF018FEF70F
:1095DC0029FA364BF3181F60354BF018FEF71EFABC
:1095EC00800287B2BB4500D85F46324BF3181C682B
:1095FC00A4B20098FEF712FA002841D02E4B1B881B
:10960C002B41DB0701D5A7423DD8A742EDD83A0044
:10961C0001994046FEF724FA284BF418202120002B
:10962C00FEF700FA2000FEF7F9F90028FAD1244BD6
:10963C00F018FEF7F3F9C30606D5224BF0181021EB
:10964C00FEF7F0F938001FE00307F0D51D4BF018BA
:10965C000821FEF7E7F90D20404215E001204042B9
:10966C0012E0052040420FE00E2040420CE00C209E
:10967C00404209E00B20404206E00720404203E054
:10968C000420404200E0002003B00CBC90469B46F6
:10969C00F0BDC046000001463000014627010146DE
:1096AC0026010146250101462401014620010146FF
:1096BC0000020146040201464E0300201000014640
:1096CC002000014628000146F0B55F464646C0B46E
:1096DC0085B00600009190460193082800D9D2E08D
:1096EC0007008504714BE818FEF798F983460F23A1
:1096FC000340022B02D0042B00D0C7E04346002BC2
:10970C0000D1C6E073006A4A9B5A002B15D1694BF5
:10971C00EB181C68A4B2684BE818FEF77FF9002818
:10972C0000D1B9E0654B1B883B41DB0702D5002C0F
:10973C0000D1B4E0002CEAD000E000240022604B01
:10974C009A5507235A461340022B02D0042B42D0C1
:10975C0077E07300564A9B5A002B30D1082202A99D
:10976C003000FEF797F9574BEC1840212000FEF71C
:10977C0059F92000FEF752F90028FAD102AB1B78F8
:10978C00019A137002AB5B78537002AB9B789370A9
:10979C0002ABDB78D37002AB1B7902AA52791B02A5
:1097AC009B180C9A138002AB9A79730002A9C979A1
:1097BC00120252183E495A528022414B9A5573005C
:1097CC003B4A9C5AA04500D24446220000993000E6
:1097DC00FEF760F93CE07300354A9B5A002B24D10C
:1097EC00022202A93000FEF755F9364BEC18402145
:1097FC002000FEF717F92000FEF710F90028FAD127
:10980C0002AB1B78710002AA52781B029B189BB208
:10981C00274A8B522C4A934204D93000FFF77AFB2B
:10982C002A483DE08022264B9A557300204A9C5AC8
:10983C00A04500D24446220000993000FEF72AF9D8
:10984C0006E021003000FEF73FF97300184A9C52E5
:10985C001C4B9C46654440212800FEF7E3F8280089
:10986C00FEF7DCF80028FAD1114A71008B5A1B1B49
:10987C009BB28B52002B04D0114A915D01230B43F8
:10988C00935520000CE00120404209E005204042A5
:10989C0006E00E20404203E00420404200E000209D
:1098AC0005B00CBC90469B46F0BDC046000001467E
:1098BC005C03002024020146300001464E030020C8
:1098CC005403002010000146EA05000017FCFFFFBE
:1098DC0070B51500082865D8072903D88900384BBE
:1098EC005B589F460A20404269E08004354B9C46F9
:1098FC0060441178FEF796F8012060E08004324B4A
:10990C009C4660441178FEF78DF8012057E08004E6
:10991C002E4B9C4660441388036001204FE080046A
:10992C002B4B9C46604413880360012047E0840461
:10993C00284BE018FEF772F80F231840012836D197
:10994C00254BE018FEF76AF8002833D1234BE518B5
:10995C0022212800FEF766F80DE0214BE018FEF7F7
:10996C005DF8030707D51F4BE0180821FEF75AF8DE
:10997C000D20404223E02800FEF750F80028ECD1DF
:10998C0001301CE08404134BE018FEF747F80F235A
:10999C001840012811D1104BE0182978FEF742F835
:1099AC0001200CE00120404209E0012007E00520E5
:1099BC00404204E00220404201E00520404270BDDC
:1099CC004033010008010146040101461001014623
:1099DC0020010146000001468001014610000146AD
:1099EC00200001462800014670B504001500082827
:1099FC0000D994E00C2900D994E089004E4B5B58B7
:109A0C009F4680044D4B9C466044FEF707F80F239D
:109A1C009843287001208DE08004494B9C4660449B
:109A2C00FDF7FCFF2870012084E08004454B9C4628
:109A3C006044FDF7F3FF287001207BE08404424B67
:109A4C009C46644423681370012073E084043F4BEC
:109A5C00E018FDF7E3FF28703D4BE018FDF7DEFF43
:109A6C0068703C4BE018FDF7D9FFA8703A4BE01832
:109A7C00FDF7D4FFE87001205CE08404374B9C4672
:109A8C00644423681380012054E084042B4BE018B9
:109A9C00FDF7C4FF0F231840012846D1304BE018C6
:109AAC00FDF7BCFF2880012044E084042D4B9C462C
:109ABC0064442368138001203CE084042A4B9C46B8
:109ACC00644423681380012034E08004274B9C46B7
:109ADC006044FDF7A3FF287001202BE08604174B90
:109AEC00F018FDF79BFF012805D11F4B9C466644DF
:109AFC0033682B801EE064001D4BE35A2B80012041
:109B0C0018E080040D4B9C466044FDF787FF0F2343
:109B1C00184001280CD1174B1B5D2B700AE001205B
:109B2C00404207E00220404204E00520404201E0B0
:109B3C000520404270BDC046603301000000014664
:109B4C0008010146040101461001014627010146A6
:109B5C00260101462501014624010146200101464A
:109B6C0080010146040201462402014630000146F0
:109B7C005C03002054030020F0B593B04E48FDF771
:109B8C004DFF00904D48FDF749FF01904C48FDF703
:109B9C0045FF02904B48FDF741FF03904A48FDF703
:109BAC003DFF04904948FDF739FF05904848FDF703
:109BBC0035FF06904748FDF731FF07904648FDF703
:109BCC002DFF08904548FDF729FF09904448FDF703
:109BDC0025FF0A904348FDF721FF0B904248FDF703
:109BEC001DFF0C904148FDF719FF0D904048FDF703
:109BFC0015FF0E903F4E3000FDF710FF0F903E4DBD
:109C0C002800FDF70BFF10903C4C2000FDF706FFE1
:109C1C0011903B4F80213800FDF704FF3800FDF711
:109C2C00FDFE00992448FDF7FDFE01992348FDF740
:109C3C00F9FE02992248FDF7F5FE03992148FDF73C
:109C4C00F1FE04992048FDF7EDFE05991F48FDF73C
:109C5C00E9FE06991E48FDF7E5FE07991D48FDF73C
:109C6C00E1FE08991C48FDF7DDFE09991B48FDF73C
:109C7C00D9FE0A991A48FDF7D5FE0B991948FDF73C
:109C8C00D1FE0C991848FDF7CDFE0D991748FDF73C
:109C9C00C9FE0E991648FDF7C5FE0F993000FDF769
:109CAC00C1FE10992800FDF7BDFE11992000FDF7AB
:109CBC00B9FE13B0F0BDC04603600046026000461A
:109CCC0001600046006000460760004606600046E2
:109CDC000B6000460A6000460960004608600046BA
:109CEC000F6000460E6000460D6000460C6000469A
:109CFC00136000461260004611600046106000467A
:109D0C000023004670B506000D00FFF735FF002E4E
:109D1C0006D118E0F15C8A1852B201335BB201E053
:109D2C0000220023072BF5DD102A2BDC002408E091
:109D3C00A004174B9C466044315DFDF773FE013463
:109D4C0064B2072CF4DD002D07D100201FE0E95C84
:109D5C008A1852B201335BB201E000220023072BB8
:109D6C00F5DD102A11DC002408E0A004094B9C4608
:109D7C006044295DFDF756FE013464B2072CF4DD16
:109D8C00002004E00120404201E00120404270BD6F
:109D9C00000201462002014610B5040001782A4851
:109DAC00FDF740FE61782948FDF73CFEA178284874
:109DBC00FDF738FEE1782748FDF734FE2179264877
:109DCC00FDF730FE61792548FDF72CFEA17B244878
:109DDC00FDF728FEE17B2348FDF724FE217C224879
:109DEC00FDF720FE617C2148FDF71CFEA17A20487E
:109DFC00FDF718FEE17A1F48FDF714FE217B1E4883
:109E0C00FDF710FE617B1D48FDF70CFEA1791C4887
:109E1C00FDF708FEE1791B48FDF704FE217A1A488C
:109E2C00FDF700FE617A1948FDF7FCFDA27C184B8A
:109E3C001A70E27C5A70227D9A70627DDA70A27D73
:109E4C00144B1A7010BDC0460360004602600046F9
:109E5C000160004600600046076000460660004650
:109E6C000B6000460A600046096000460860004628
:109E7C000F6000460E6000460D6000460C60004608
:109E8C0013600046126000461160004610600046E8
:109E9C00700300206C03002010B504002A48FDF765
:109EAC00BDFD20702948FDF7B9FD60702848FDF70D
:109EBC00B5FDA0702748FDF7B1FDE0702648FDF711
:109ECC00ADFD20712548FDF7A9FD60712448FDF713
:109EDC00A5FDA0732348FDF7A1FDE0732248FDF713
:109EEC009DFD20742148FDF799FD60742048FDF715
:109EFC0095FDA0721F48FDF791FDE0721E48FDF71D
:109F0C008DFD20731D48FDF789FD60731C48FDF71E
:109F1C0085FDA0711B48FDF781FDE0711A48FDF726
:109F2C007DFD20721948FDF779FD6072184B1A7887
:109F3C00A2745A78E2749A782275DB786375154BA3
:109F4C001B78A37510BDC046036000460260004636
:109F5C00016000460060004607600046066000464F
:109F6C000B6000460A600046096000460860004627
:109F7C000F6000460E6000460D6000460C60004607
:109F8C0013600046126000461160004610600046E7
:109F9C00700300206C03002070B50500382302000C
:109FAC009A430AD1064C2000FDF738FD2843C1B274
:109FBC002000FDF737FD002001E00120404270BD7C
:109FCC000023004610B50248FDF728FD10BDC04621
:109FDC000023004610B5040001780348FDF722FD6C
:109FEC006288024B1A6010BD446000464060004617
:109FFC0010B504000348FDF711FD2070024B1B68DF
:10A00C00638010BD446000464060004610B50C00F3
:10A01C00052820D88000114B1B589F460800FFF7DD
:10A02C00BBFE002019E00800FFF736FF002014E00B
:10A03C000878FFF7B1FF10E0FFF7C4FF2070002095
:10A04C000BE00800FFF7C6FF002006E00800FFF752
:10A05C00CFFF002001E00120404210BD94330100ED
:10A06C0070B5050003F0A4F8040003F0A1F8052D69
:10A07C001BD8AD00144B5B599F460122230029339A
:10A08C005A7012E00222230029335A700DE0032289
:10A09C00230029335A7008E00422230029335A7014
:10A0AC0003E00522230029335A7029346378022BEC
:10A0BC0004D10121022002F061FA03E00021022008
:10A0CC0002F05CFA70BDC046AC33010010B503F071
:10A0DC006FF82930407810BDF8B503F069F8060028
:10A0EC004C4B19884C4B188840184C4B1B88C01A89
:10A0FC0005F014FF8FB24A4B1C880904090C09198E
:10A10C00484B994219DD330029335B7C002B0ED070
:10A11C00012F0CD1002002F047FD434B18553200A3
:10A12C002932527C3E490D885B5D9A4270D03C4B83
:10A13C001F8880231B01DF1BBFB2330029339A7B9E
:10A14C00DB7B1B0213433FD1330029331B7C002BD9
:10A15C003CD1330029335B7C002B0DD0002436E03E
:10A16C002F4B1D886A1C1A80002002F01DFD2E4BFF
:10A17C0058550134A4B200E00024BC42F0D3284B63
:10A18C001D8845E0264B1D886A1C1A80002002F0B1
:10A19C000BFD254B5855330029335B7C002B06D027
:10A1AC001F4A15886A1E20498A5C934230D03300BE
:10A1BC0029331B7C002B04D09BB2194A1588AB4267
:10A1CC0026D00134A4B202E0002400E00024BC42FA
:10A1DC00D8D32936B37BF57B2D021D4318D0104BF9
:10A1EC001D88002D14D0114B1B78002B0FD0094B60
:10A1FC001988094B18884318084A1088181A05F052
:10A20C008DFE002904D10022084B1A7000E00025B5
:10A21C002800F8BD9E000020F0030020EE03002073
:10A22C0082030020FF07000038190020980300204B
:10A23C0010B5114B1B88002B09D0104A934203D048
:10A24C0001330D4A138002E000220B4B1A800A4B9B
:10A25C001B88002B0DD102F019FC07F0C5FC07F090
:10A26C00F1FC074905F05AFE064B9C466144024B33
:10A27C001980014B188810BD94030020FFFF0000CB
:10A28C0010270000B888FFFF10B500220621FFF749
:10A29C001FFB10BD70B5040002F08AFF0500A0047E
:10A2AC000B4B9C466044FDF7B9FB00280DD02923CD
:10A2BC00EB5C032B06D0172801D01C2802D1200000
:10A2CC00FEF7C6FF2000FEF725FE200070BDC0463D
:10A2DC0030000146F0B585B007000C0002F068FFB5
:10A2EC0005000B22002101A807F0F0FB0A2C00D975
:10A2FC000A242200390001A807F0DFFB4E352800A4
:10A30C0007F06AFD844208D1220001A9280007F059
:10A31C00C5FB002803D0002002E0002000E0012053
:10A32C0005B0F0BD70B5050002F042FF060002F06A
:10A33C003FFF0400002D12D10022234B1A70042081
:10A34C00FFF78EFE4534237A002B21D01F4807F0EF
:10A35C0041FC0E221E49002002F008FC18E00122EC
:10A36C00194B1A700120FFF77BFE2923F35C022B9B
:10A37C0002D10022174B1A704534237A002B07D0D8
:10A38C00154807F027FC0E221449002002F0EEFBC2
:10A39C000023002212490B8012490B8012490B80BA
:10A3AC0012490A7012490A7012490A7012490A704D
:10A3BC0012490B8012490B8012490B8012490B80F9
:10A3CC00124B1A7070BDC04637000020C03401001B
:10A3DC00D03401008C030020E0340100F034010083
:10A3EC0082030020F0030020EE030020A4030020D1
:10A3FC00970300208D03002086030020900300208B
:10A40C00B40300207E03002080030020980300206A
:10A41C00F8B5070000240FE00B4D28880B4E325D79
:10A42C000B4B1A5401300B4B198805F077FD298022
:10A43C00002333550134E4B2BC42EDD30023064A69
:10A44C001370064A1370F8BDF00300207803002047
:10A45C00380900209E000020860300208403002081
:10A46C0010B5040002F0A4FE02F0A2FE0300314A73
:10A47C001278012A5CD102009B321078002858D047
:10A48C002D4A1278022A02D8002A03D01AE0032A95
:10A49C002DD036E04E339B184F331B78A34232D16C
:10A4AC00264B198889B2264B1B889BB299422CD11A
:10A4BC00244B9C540132204B1A700122224B1A70EF
:10A4CC00002329E04E339B184F331B789C421ED13E
:10A4DC001A4B198889B21A4B1B889BB2994218D215
:10A4EC00184B9C540132144B1A70002314E0134B7C
:10A4FC001A8892B2124B1B889BB29A420BD3002340
:10A50C000AE0002308E0002306E0002304E0012316
:10A51C0002E0012300E00123012B03D1064B187844
:10A52C00FFF776FF0022054B1A80034B187800E0EA
:10A53C00002010BD37000020840300208003002081
:10A54C0034000020780300208603002070B504003E
:10A55C0002F02EFE050002F02BFE02002B00293328
:10A56C005B78022B07D002D8012B06D00BE0043B02
:10A57C00DBB2012B07D8012008E02923EB5C022B6E
:10A58C0003D1012002E0002000E00020012810D1BE
:10A59C0045325379012B0CD1112C04D10122054BDE
:10A5AC001A70002005E0132C03D10022014B1A7005
:10A5BC00002070BD3600002000230B4A13700B4A9C
:10A5CC0013700B4A13700B4A13700B4A13700B4A1F
:10A5DC0013700B4A13700B4A13800B4A13800B4AEF
:10A5EC0013800B4A13807047A40300208D030020B6
:10A5FC00970300207B03002098030020B303002066
:10A60C00B6030020900300207E030020B40300203A
:10A61C007603002010B502F0CBFD040002F0C8FD5B
:10A62C009B300378012B13D10A4B1B78012B0FD1D4
:10A63C002934A27BE37B1B02134309D0064B1B7806
:10A64C00002B02D10122044B1A700022034B1A80FA
:10A65C0010BDC046370000208D0300207E03002073
:10A66C00F0B585B002F0A4FD060002F0A1FD029049
:10A67C0002F09EFD07005348FDF7D0F90400524844
:10A68C00FDF7CCF905005148FDF7C8F90390504887
:10A69C00FDF7C4F93B004E339B7D012B0DD14D4B87
:10A6AC001B78012B09D0029F45373B7A002B71D0C8
:10A6BC00494807F08FFA012081E0002C10D1002DC1
:10A6CC000ED1039B002B0BD1002809D1029F4537DB
:10A6DC003B7A002B60D0414807F07CFA01206EE0F9
:10A6EC00330029339978002916D1DB78002B13D14C
:10A6FC00330029331B79002B0ED1330029335B79BE
:10A70C00002B09D1029F45373B7A002B46D03448A9
:10A71C0007F060FA012052E08C4219D13300293342
:10A72C00DB789D4214D1330029331B79039A9A426A
:10A73C000ED1330029335B79984209D1029F4537FA
:10A74C003B7A002B2CD0274807F044FA012036E046
:10A75C00C02C27D1A82D27D13B004E335B7D002B7D
:10A76C0024D1C02924D133002933DA78A82A21D165
:10A77C001B79039898421FD0029F4537387A0028DE
:10A78C001CD03000293040790090174807F0A6F90A
:10A79C00012014E0012012E0012010E001200EE065
:10A7AC0001200CE000200AE0002008E0002006E078
:10A7BC00002004E0002002E0002000E0012005B0B1
:10A7CC00F0BDC046136000461260004611600046A2
:10A7DC00106000469603002000350100283501006A
:10A7EC0060350100A4350100D835010004281CD8BF
:10A7FC0080000E4B1B589F4600230D4A13600D4AD8
:10A80C0013600D4A13600D4A13600EE00022084BD2
:10A81C001A600AE00022074B1A6006E00022064B81
:10A82C001A6002E00022054B1A607047C433010025
:10A83C009C03002088030020AC030020A003002010
:10A84C0000293BD0012813D0002804D002281CD0AA
:10A85C00032827D032E01A4B1B68013304D0184A66
:10A86C001368C918116029E00022154B1A6025E005
:10A87C00134B1B68013304D0124A1368C9181160BA
:10A88C001CE000220F4B1A6018E00D4B1B680133C3
:10A89C0004D00D4A1368C91811600FE000220A4B4E
:10A8AC001A600BE0064B1B68013304D0074A13688F
:10A8BC00C918116002E00022044B1A607047C046B0
:10A8CC009C03002088030020AC030020A003002080
:10A8DC00F0B54F4680B484B0050002F069FC04006A
:10A8EC0002F066FC039004F09BFC002800D09AE078
:10A8FC00FFF7F2FB070001000020FFF7A1FF002F7C
:10A90C0000D18DE0A8044A4B9C466044FDF786F8C4
:10A91C0017285AD003D8142800D17DE080E01C28D9
:10A92C0053D022287CD1230029339B78002B33D1A0
:10A93C0023002933DB78002B2ED1230029331B79FC
:10A94C00002B29D1230029335B79002B24D1394BDF
:10A95C001B78002B14D1374B5B78002B10D1354B67
:10A96C009B78002B0CD1334BDB78002B08D1039E4A
:10A97C004536337A002B1FD02F4807F02BF91BE0FC
:10A98C002E4B1B8800932B4B3A002D492800FEF7C9
:10A99C00D5FD03B299460FE02200293223002B3358
:10A9AC00117A527A12020A4300923A002449280082
:10A9BC00FEF7C4FD03B299464B46002B30DD214B0C
:10A9CC0018884A46801A18802AE01F4B1B78012BE6
:10A9DC0026D13A001A492800FEF788FC03B2002B56
:10A9EC0003DD184A1388181A108039000120FFF76C
:10A9FC0027FF2934E37D012B12D1144B1B78002B3C
:10AA0C0003D10122124B1A7002E000220F4B1A7074
:10AA1C000022104B1A8003E000220A4B1A8002E03D
:10AA2C0000220D4B1A8004B004BC9146F0BDC04608
:10AA3C0030000146A803002020360100B803002096
:10AA4C003819002082030020B6030020A603002042
:10AA5C0097030020B403002090030020F0B5474674
:10AA6C0080B484B0070002F0A3FB060002F0A0FB48
:10AA7C00050002F09DFB03902B0045335B79022B04
:10AA8C0005D1002002F0A0F9002800D0DCE0B804C9
:10AA9C006F4BC3181C68A4B280231B019C4200D9C5
:10AAAC001C00002C48D06B4B9C466044FCF7B6FF56
:10AABC001C282DD0222802D0172830D128E0664B34
:10AACC000093664B220066493800FEF7FDFD654B8E
:10AADC00188004226149644806F0E0FF00281ED06B
:10AAEC005E4B1A68604B1A602B0045331B7A002BA7
:10AAFC0015D05A480178427883789846C078564BDE
:10AB0C001B88019300904346584806F0E7FF06E087
:10AB1C00220053493800FEF78DFC524B188000235D
:10AB2C00534A1380534A1380534B00221A704D4BD7
:10AB3C0019880220FFF784FE330029335B78012B40
:10AB4C0005D0022B24D14D4B1B78002B20D1039E1A
:10AB5C004E36337D012B1BD1494B1B78002B17D163
:10AB6C0021003F48FFF7B6FB012803D10122444BDB
:10AB7C001A7002E00022424B1A700022394B1A80E4
:10AB8C003F4B1B78002B03D13800FEF761FB5BE0D9
:10AB9C00344B1B88002B57D02B004533DB79012B12
:10ABAC0003D101F0F3FD00284ED04523EB5C012BC3
:10ABBC001AD1002002F0A4F8002406E0284B195DFD
:10ABCC00002001F0BDFF0134A4B2264B1B889C422F
:10ABDC00F4D3002002F0C6F8224C21880320FFF7A2
:10ABEC002FFE002323802FE045356B79012B20D1DC
:10ABFC00244B1B78012B27D107E0194B195D002042
:10AC0C0001F09EFF0134A4B200E00024154B19881A
:10AC1C008C42F2D30320FFF713FE0022114B1A8053
:10AC2C0012E00F4B195D002001F08AFF0134A4B231
:10AC3C0000E000240B4B19888C42F2D30320FFF761
:10AC4C00FFFD0022074B1A8004B004BC9046F0BDF7
:10AC5C002402014630000146B8030020A80300205E
:10AC6C0038210020B003002030000020683601009D
:10AC7C0090030020B4030020A60300208C030020C6
:10AC8C00B603002036000020F0B583B0040002F0BB
:10AC9C008FFA02F08DFA050002F08AFA0190A704EF
:10ACAC00294BF818FCF7BAFE002821D0222848D1ED
:10ACBC00264B1988264B18884018264B1B88C01A1F
:10ACCC0005F02CF9002903D1234B1B88002B02D053
:10ACDC002000FFF7FDFD214BFB181B681B0403D163
:10ACEC001F4B1B88002B2CD02000FFF7B7FE28E051
:10ACFC000023174A1380174A1380174A1380184AE7
:10AD0C0013802A0029329379D27912021A43002334
:10AD1C0002212000FEF738F9844212D10520FFF7FA
:10AD2C009FF92935AA7BEB7B1B02134301D00D4AFB
:10AD3C001380019F45373B7A002B02D00A4806F05E
:10AD4C0049FF03B0F0BDC046300001469E00002014
:10AD5C00F0030020EE0300208203002024020146B1
:10AD6C00B00300203400002090360100F0B54746B7
:10AD7C0080B486B0040002F01BFA02F019FA050048
:10AD8C0002F016FA060002F013FA03900023059362
:10AD9C000A2202A98C46624413800294A704A64B93
:10ADAC00F818FCF73BFE1C2800D940E18000A34BAF
:10ADBC001B589F462A002932137B527B12021A43DE
:10ADCC009F4B1B889BB29A4200D930E100229C4BCE
:10ADDC001A80FFF745FC012800D128E12A0029320E
:10ADEC0029002B31137A527A12021A432000FEF7F3
:10ADFC0099F91CE1934BF818FCF710FEC30756D5D4
:10AE0C000220FFF72DF9904B1B889BB2002B09D128
:10AE1C002B0029339A7ADB7A1B02134302D00122CE
:10AE2C008A4B1A708A4B1B889BB2002B07D12B00C4
:10AE3C002933DB7D002B02D00122864B1A700122B4
:10AE4C00854B1A70854B1B78012B04D10023834A48
:10AE5C0013707B4A13804536337A002B1AD005AE1B
:10AE6C00320004212000FEF7BFFD0A2302AA9446FB
:10AE7C00634498461A0005212000FEF7B5FD317891
:10AE8C007278B378F078464636880196009074480C
:10AE9C0006F024FE0023734A1380734A1380734B0D
:10AEAC0000221A700121724BF818FCF7BBFD714B94
:10AEBC0019886C4B188840186B4B1B88C01A05F00E
:10AECC002DF8002903D16C4B1B88002B02D02000DD
:10AEDC00FFF7FEFC694BFB181B681B0403D1684B86
:10AEEC001B88002B02D02000FFF7B8FD574B1B78B6
:10AEFC00012B12D12A002932937AD27A12021A43E8
:10AF0C00514B1B889BB29A4207D82000FFF7C2F91D
:10AF1C000023504A13704E4A13802B002933DB7DDB
:10AF2C00012B00D083E04B4B1B78012B00D07EE033
:10AF3C00544B1B78002B15D12B0029331A7E5B7ECA
:10AF4C001B021343424A128892B293420AD8002B36
:10AF5C0008D02000FFF798F900223D4B1A800132EF
:10AF6C00484B1A70474B1B78012B60D12935AA7EB0
:10AF7C00EB7E1B021343364A128892B2934256D888
:10AF8C00002B54D02000FFF77FF90022304B1A80A1
:10AF9C004DE02000FFF762FD384BFB181B681B04CB
:10AFAC00F7D1374B1B88002BF3D12000FEF750F95B
:10AFBC003DE00120FFF754F8FFF7FEFA00232E4A7C
:10AFCC0013802F4A1380FFF733F90200212301214C
:10AFDC002000FDF7D9FF029B834228D1039F9B37AA
:10AFEC003B78012B08D12B0029339A7BDB7B1B028E
:10AFFC00134301D0244A1380184B1B78002B08D123
:10B00C0029352A7B6B7B1B02134302D00122134B85
:10B01C001A704536337A002B09D0144B1B78002B51
:10B02C0005D11A4806F0D6FD0122104B1A7006B055
:10B03C0004BC9046F0BDC04630000146D833010038
:10B04C00740300202000014690030020A40300207C
:10B05C00B403002097030020B6030020A5030020B2
:10B06C00AC360100F0030020EE0300208E0300201C
:10B07C00280001469E000020820300202402014685
:10B08C00B0030020A603002034000020D8360100B5
:10B09C00F0B54F4680B486B0040002F089F802F097
:10B0AC0087F8060002F084F8039002F081F8029011
:10B0BC00002305930A2202A98C46624413802700C0
:10B0CC00A504964BE818FCF7A9FC17280BD003D85D
:10B0DC00002800D1EFE01DE1182800D1EBE01C287E
:10B0EC0000D1DBE016E18E4BE818FCF797FCC307A8
:10B0FC004AD50220FEF7B4FF8A4B1B889BB2002B6B
:10B10C0009D1330029339A7ADB7A1B02134302D01C
:10B11C000122854B1A70029B4E331B7D002B03D1F1
:10B12C000122824B1A7005E00122814B1A70002219
:10B13C00804B1A80039F45373B7A002B1AD005AF02
:10B14C003A0004212000FEF74FFC0A2302AA944681
:10B15C00634499461A0005212000FEF745FC397816
:10B16C007A78BB78F8784F463F8801970090724800
:10B17C0006F0B4FC0023714A1380714A138001213C
:10B18C00704BE818FCF74EFC6F4B19886B4B18880A
:10B19C0040186B4B1B88C01A04F0C0FE002903D169
:10B1AC006A4B1B88002B02D02000FFF791FB684BE9
:10B1BC00EB181B681B0403D1664B1B88002B02D0B9
:10B1CC002000FFF74BFC584B1B78012B12D132009F
:10B1DC002932937AD27A12021A43524B1B889BB2B1
:10B1EC009A4207D82000FFF755F800235A4A1370EB
:10B1FC005A4A138033002933DB7D012B33D1564B54
:10B20C001B78012B2FD1564B1B78002B15D13300FB
:10B21C0029331A7E5B7E1B021343504A128892B26A
:10B22C0093420AD8002B08D02000FFF72DF80022FB
:10B23C004A4B1A8001324A4B1A70494B1B78012B2E
:10B24C0011D12936B27EF37E1B021343434A128876
:10B25C0092B2934207D8002B05D02000FFF714F8C8
:10B26C0000223E4B1A80029D4E352B7D012B51D175
:10B27C002E4B1B78002B4DD12E4B1B889BB2394A81
:10B28C00934247D92000FFF705F80023284A137092
:10B29C00284A13803EE02000FFF7E0FB2C4BEB1814
:10B2AC001B681B04F7D12B4B1B88002BF3D1200000
:10B2BC00FDF7CEFF2EE00120FEF7D2FEFFF77CF962
:10B2CC000023224A1380234A1380320029329379B7
:10B2DC00D27912021A43202301212000FDF754FEDB
:10B2EC00874217D1029D9B352B78012B07D129362C
:10B2FC00B27BF37B1B02134301D01B4A138020004B
:10B30C00FDF7D2FE039F45373B7A002B02D017483E
:10B31C0006F060FC06B004BC9146F0BD300001465E
:10B32C002000014690030020A4030020B603002057
:10B33C007B03002076030020FC360100F003002084
:10B34C00EE030020280001469E000020820300200E
:10B35C0024020146B003002097030020B403002010
:10B36C00A6030020871300003400002028370100BA
:10B37C00F0B5474680B486B0040001F019FF01F027
:10B38C0017FF050001F014FF039001F011FF02906C
:10B39C00002305930A2202A98C4662441380A6045A
:10B3AC00C84BF018FCF73AFB1C2800D92EE28000A1
:10B3BC00C54B1B589F46C54B1B78012B00D025E273
:10B3CC002A002932137B527B12021A43C04B1B8872
:10B3DC009BB29A4200D919E20022BD4B1A80FFF7AA
:10B3EC003FF901280DD12000FEF754FF0023B94A84
:10B3FC001370B94A1380B94A1380B44B00221A70E7
:10B40C0004E22A00293229002B31137A527A1202D3
:10B41C001A432000FDF786FEAE4A13780133DBB2E7
:10B42C001370092B00D8F1E12000FEF733FF002345
:10B43C00A84A1370A84A1380A84A1380A34B002271
:10B44C001A70E3E1A14B1B78002B00D0DEE1A44B7A
:10B45C001988A14B18884018A04B1B88C01A04F0FF
:10B46C005DFD002900D1D1E12000FEF713FF012280
:10B47C00964B1A7029352A7B6B7B1B021343944A1B
:10B48C001380C3E1974BF018FCF7C8FAC30700D43C
:10B49C0086E00220FEF7E4FD934B1B889BB2002B49
:10B4AC0009D12B0029339A7ADB7A1B02134302D081
:10B4BC0001228E4B1A708E4B1B889BB2002B07D12E
:10B4CC002B002933DB7D002B02D00122894B1A7013
:10B4DC00029B4E331B7D002B03D07C4B1B78012B26
:10B4EC0003D10122844B1A700BE0002B09D1824B43
:10B4FC001B78002B05D10122804B1A700022804B47
:10B50C001A80039F45373B7A002B33D005AA0421C0
:10B51C002000FEF769FA0A2202AB9C466244052120
:10B52C002000FEF761FA694B1B78002B11D105A89E
:10B53C00017842788378C07880460A2702A884462E
:10B54C0067443F880197404600906E4806F0C6FA63
:10B55C0010E005A8017842788378C07880460A27E5
:10B56C0002A8844667443F8801974046009066488D
:10B57C0006F0B4FA554B1B78002B04D1564A1380B5
:10B58C00564A138004E0012B02D100224F4B1A7053
:10B59C000022504B1A7001215C4BF018FCF742FA58
:10B5AC004F4B19884C4B188840184C4B1B88C01AB1
:10B5BC0004F0B4FC002903D1554B1B88002B02D09E
:10B5CC002000FFF785F9534BF3181B681B0403D1BC
:10B5DC00514B1B88002B02D02000FFF73FFA434B46
:10B5EC001B78012B15D12A002932937AD27A1202B8
:10B5FC001A433D4B1B889BB29A420AD82000FEF797
:10B60C0049FE00233B4A1370394A13802F4B00220A
:10B61C001A702B002933DB7D012B33D1354B1B7872
:10B62C00012B2FD13D4B1B78002B15D12B0029332F
:10B63C001A7E5B7E1B0213432D4A128892B29342F0
:10B64C000AD8002B08D02000FEF71EFE0022284B43
:10B65C001A800132314B1A70304B1B78012B11D1EF
:10B66C002935AA7EEB7E1B021343214A128892B223
:10B67C00934207D8002B05D02000FEF705FE0022D0
:10B68C001B4B1A80114B1B78002B00D0BEE0029E86
:10B69C004E36337D012B00D0B8E0174B1B78002BB6
:10B6AC0000D0B3E0164B1B889BB21D4A934200D8C6
:10B6BC00ACE02000FEF7EEFD0023104A1370104A98
:10B6CC001380A3E0300001464C3401008C030020B1
:10B6DC0074030020BA030020F0030020EE030020C6
:10B6EC009E0000202000014690030020A4030020AF
:10B6FC00B403002097030020B60300207B03002036
:10B70C0076030020FC360100AC360100280001460F
:10B71C008203002024020146B0030020A60300206F
:10B72C00871300002000FFF799F93A4BF3181B68B8
:10B73C001B04F7D1384B1B88002BF3D12000FDF7ED
:10B74C0087FD63E00120FEF78BFC344B1B78002B4C
:10B75C002CD1FEF731FF0023314A13802E4A13807F
:10B76C002A0029329379D27912021A43212301211A
:10B77C002000FDF709FC844248D1029E9B363378A9
:10B78C00012B07D12935AA7BEB7B1B02134301D07C
:10B79C00244A13802000FDF787FC039F45373B7A32
:10B7AC00002B33D0204806F015FA2FE000221A4B5C
:10B7BC001A80FEF73DFD0200202301212000FDF739
:10B7CC00E3FB844222D1029E9B363378012B08D1B5
:10B7DC002B0029339A7BDB7B1B02134301D0114ACC
:10B7EC001380124B1B78002B08D129352A7B6B7BDD
:10B7FC001B02134302D001220C4B1A70039F4537D6
:10B80C003B7A002B02D00A4806F0E4F906B004BCDF
:10B81C009046F0BD24020146B00300208C030020AA
:10B82C0082030020340000204C370100A5030020C7
:10B83C007437010070B5060001F0BAFC050001F088
:10B84C00B7FC040001F0B4FC224B1B78002B02D097
:10B85C000022204B1A70A823C35C012B39D01E4B3D
:10B86C001B78012B0CD11D4B1B78012B08D1300000
:10B87C00FEF710FD0020FEF755FD0022174B1A7045
:10B88C00154B1B78012B24D12833EB5C012B0AD0F0
:10B89C00002B04D0022B0AD0032B0CD00EE030006E
:10B8AC00FFF764FA0AE03000FFF7F2FB06E0300025
:10B8BC00FFF75EFD02E03000FFF7E6F9002001F033
:10B8CC005DFC45346079431EDBB2012B01D801F0DD
:10B8DC00D7FB70BD85030020370000207C030020BF
:10B8EC0010B501F065FC04003E4B1B78002B0ED00C
:10B8FC003D4B1B889BB23D4A934205D03A4A138874
:10B90C0001339BB2138002E00022374B1A80384B74
:10B91C001B78002B0ED0374B1B889BB2334A9342BB
:10B92C0005D0344A138801339BB2138002E0002205
:10B93C00304B1A80304B1A8892B2304B1B889BB21A
:10B94C009A4204D22C4A138801339BB213802C4B9D
:10B95C001B78002B16D0284B1A8892B2274B1B88C9
:10B96C009BB29A420ED1274B1878032803D101229F
:10B97C00254B1A7001E0FEF74BFD0023214A137092
:10B98C001F4A1370214B1B78002B17D02934A37B33
:10B99C00E27B12021A431E4B1B889BB29A4205D9BA
:10B9AC001B4A138801339BB2138007E00022184B0B
:10B9BC001A80164B1A700122164B1A70164B1B78F4
:10B9CC00002B0ED0154B1B889BB2084A934205D016
:10B9DC00124A138801339BB2138002E000220F4BF2
:10B9EC001A8010BDA503002074030020FFFF000087
:10B9FC0097030020B40300208003002034000020B3
:10BA0C0086030020840300207C0300208D0300208B
:10BA1C007E030020980300207B0300207603002087
:10BA2C00094B1B78002B0AD0084B1B889BB2084A89
:10BA3C00934204D0054A138801339BB21380012230
:10BA4C00044B1A707047C046A403002090030020DA
:10BA5C00FFFF00008503002010B501F0ADFB01F0E5
:10BA6C00EBFC10BD10B5002404E02000FEF712FC26
:10BA7C000134E4B2072CF8D910BDC04610B5FFF75D
:10BA8C00F1FF0420FEF7B2FEBFF34F8F034A044BC5
:10BA9C00DA60BFF34F8FC046FDE7C0460400FA05DD
:10BAAC0000ED00E01F4B1B78012B1AD11E4B1B889D
:10BABC009BB21E4A934205D01B4A138801339BB29A
:10BACC00138002E00022184B1A80174B1B889BB284
:10BADC00174A934205D90122164B1A700022124BB9
:10BAEC001A80154B1B78012B1AD1144B1B889BB257
:10BAFC000E4A934205D0114A138801339BB213802E
:10BB0C0002E000220D4B1A800C4B1B889BB2084A9A
:10BB1C00934205D901220A4B1A700022074B1A8056
:10BB2C007047C046BC030020C4030020FFFF000088
:10BB3C0087130000BB030020CE030020CC030020A1
:10BB4C00D40300200023074A1370074A1370002205
:10BB5C0006490B8006490B80064B1A70064B1A706F
:10BB6C007047C046BC030020CE030020C403002055
:10BB7C00CC030020BB030020D4030020F0B54746C3
:10BB8C0080B484B00400019101F012FB0500002286
:10BB9C0003AB1A802600A704494BF818FBF73EFFAD
:10BBAC00172808D002D800286ED07DE018286BD05A
:10BBBC001C2864D078E0434BF818FBF72FFFC30721
:10BBCC0007D50122404B1A700121404BF818FBF7A6
:10BBDC0029FF3F4B1B78012B04D12000FDF79AF96C
:10BBEC00002068E03B4BFB18186882B2002A5DD03D
:10BBFC0080231B019A4200D91A00374B1F68D319B6
:10BC0C0098462800A830C67803791B0233431900E4
:10BC1C0043791B040B43807900061843804501D9F6
:10BC2C00C01B82B201992000FDF704FC86B22A4F9A
:10BC3C0003041B0C3A68944663443B60330A03A923
:10BC4C000B70487002222000FDF750FB0022234BA2
:10BC5C001A80A835E8782A79120202436B791B0402
:10BC6C0013431A00AB791B0613433A6893421FD84F
:10BC7C00FFF768FF2000FDF7EBFA30001BE0200017
:10BC8C00FDF7E6FA002016E02023154A01212000DA
:10BC9C00FDF77AF986420DD100220F4B1A60200075
:10BCAC00FDF702FA002006E0002004E0100002E09C
:10BCBC00300000E0002004B004BC9046F0BDC0464B
:10BCCC003000014620000146CE030020280001462A
:10BCDC00D403002024020146D0030020CC03002012
:10BCEC0052C30000F8B5060001F062FA050001F03D
:10BCFC005FFA0400A823EB5C002B00D1AAE02F0014
:10BD0C00A837F8783B791B0203431A0079790904A8
:10BD1C000B001343B979090619434A1E4F4B9A423B
:10BD2C000BD94534237A002B00D195E0C82252025E
:10BD3C004B4805F0D3FE40208FE0022E5DD123004E
:10BD4C0045331B7A002B02D0464805F0C7FE002273
:10BD5C00454B1A60022000F07DFD032000F07AFDB7
:10BD6C000122424B1A7042490420FFF707FF0028BA
:10BD7C0014D03D4E3368E022D2019446634419003E
:10BD8C0003003B4A022000F0A1FD0004000C3368C4
:10BD9C009C46604430600022364B1A80364B1B7830
:10BDAC00012B09D1230045331B7A002B2ED03348AD
:10BDBC0005F010FF40262EE0314B1B78012B09D1EA
:10BDCC00230045331B7A002B22D02E4805F002FFAE
:10BDDC00402620E02E00A836F07832791202024379
:10BDEC0073791B0413431A00B3791B0613431E4AC1
:10BDFC0012689342B7D820260DE0043EF6B2012E0D
:10BE0C0008D8214805F0E6FE402026E0402602E056
:10BE1C00402600E04026A835E8782B791B02034326
:10BE2C0019006A79120413000B43AA7912061A43FB
:10BE3C000D4B19688A4209D14534237A002B04D062
:10BE4C00124805F04BFE802600E08026FFF77AFEB4
:10BE5C00300002E0402000E04020F8BDFF8F0100E0
:10BE6C0048380100B0380100C0030020BC0300209A
:10BE7C0038210020C4030020BB030020EC38010053
:10BE8C00D4030020243901005C390100A4390100DD
:10BE9C0070B5C0B001F08CF9050001F089F906000D
:10BEAC00802252000021684605F010FEFF236A46EE
:10BEBC0013702C00A834E07823791B0203431A007A
:10BECC00617909040B001343A179090619434A1E31
:10BEDC005C4B9A420BD94536337A002B00D1ADE03E
:10BEEC00E022D201584805F0F9FD4020A7E03300CC
:10BEFC0045331B7A002B02D0544805F0EFFD00228D
:10BF0C00534B1A60062000F0A5FC0122514B1A700D
:10BF1C0051490420FFF732FE00282AD04C4B1968F7
:10BF2C00002907D017E04C4CA45C6B469C540132A2
:10BF3C0092B200E00022FF2AF5D9431EFF3B9BB2D0
:10BF4C000131FF31454A062000F0C0FC80B20130BF
:10BF5C00FF3080B205E003003F4A062000F0B6FC3B
:10BF6C0080B23B4B1A6894466044186000223C4BEC
:10BF7C001A803C4B1B78012B09D1330045331B7ABB
:10BF8C00002B25D0384805F025FE402423E0374B04
:10BF9C001B78012B09D1330045331B7A002B19D0A8
:10BFAC00334805F017FE402415E02C00A834E07847
:10BFBC0022791202024363791B0413431A00A379FA
:10BFCC001B061343224A12689342A1D8202402E094
:10BFDC00402400E040242800A830C37802791202E3
:10BFEC001A4343791B0413431A0083791B0613432A
:10BFFC00174A126893421DD16946E020C00100F037
:10C00C00BBF84536337A002B13D0A835EA782B7958
:10C01C001B02134319006A79120413000B43AA790B
:10C02C0012061A430A4B1968124805F057FD802472
:10C03C0000E08024FFF786FD200000E0402040B0A7
:10C04C0070BDC046FF6F0000D43901003C3A0100BE
:10C05C00C8030020BC030020382100203822002017
:10C06C00C4030020BB030020783A0100D403002055
:10C07C00B03A0100E83A010010B5002302E01C5C64
:10C08C00CC5401339342FAD3180010BDF8B5054DCA
:10C09C00802464002E5901277F422F51024FB8474C
:10C0AC002E51F8BD00E100E00110FF1F10B5C303D5
:10C0BC00DB0B984210D00F4B984203D90E4B034028
:10C0CC0098420BD00C4B984212D983039B0B98428D
:10C0DC000ED10020112403E0122401E000201024D2
:10C0EC0072B60023002201002000FFF7CFFF62B6DA
:10C0FC0010BDC046FFFD0300FFFE030010B5C303D7
:10C10C00DB0B984207D172B60023002201001320EA
:10C11C00FFF7BCFF62B610BD10B51400124B98426D
:10C12C0007D983039B0B984203D180235B009A426F
:10C13C0014D8002C03D103190C4A934210D80C4A82
:10C14C000C4BC31893420DD972B623000A000100A0
:10C15C002220FFF79BFF62B6200004E0002002E0E3
:10C16C00002000E0002010BDFFFD0300FFFF0300D6
:10C17C00FFFD01000000FEFF10B5C0B0002906D184
:10C18C0000231DE0CA5C6C46E254013300E000233E
:10C19C00072BF7D9082304E01A1812786C46E254DE
:10C1AC000133A72BF8D9A82303E0CA5C6846C25414
:10C1BC000133FF2BF9D916E01A786946CA540133BA
:10C1CC00072BF9D9082304E01A1812786946CA54C7
:10C1DC000133A72BF8D9A82303E01A786946CA546F
:10C1EC000133FF2BF9D972B6002300220021122053
:10C1FC00FFF74CFF80235B006A4600212220FFF7EB
:10C20C0045FF62B640B010BD10B5040000F0D0FF81
:10C21C00A023C25CA03043781B02134323409C42F2
:10C22C0001D1012000E0002010BDC04610B5040073
:10C23C0000F0BEFFA0308278C3781B02134323406A
:10C24C009C4201D1012000E0002010BD10B504007B
:10C25C0000F0AEFFA030027943791B021343234058
:10C26C009C4201D1012000E0002010BD0200002002
:10C27C0005E013000341012B04D00130C0B20328A8
:10C28C00F7D900207047C046F8B5040000F090FFC5
:10C29C000600A023C25C0300A0335B781B0213438F
:10C2AC00250023409C4250D1A0B2FFF7DFFF0700CE
:10C2BC003300A0339A78DB781B02134323409C4253
:10C2CC0010D1224B1B5CFF2B3FD0FBF76FF97A0090
:10C2DC001F4BD15ABF001F4BF85803230022FBF70A
:10C2EC009FFA32E03300A0331A795B791B021343B7
:10C2FC001C40A5421CD14300154A9C5A8300154A88
:10C30C009858012301222100FBF78AFAA036B37951
:10C31C00012B06D1BF000F4BF8582100FBF732FA66
:10C32C0013E0BF000B4BF8582100FBF739FA0CE077
:10C33C004200074BD45A074D8700012300222100ED
:10C34C007859FBF76DFA7B595C61F8BD4800002009
:10C35C00803B01005400002070B504000D0000F07B
:10C36C0027FF012D0CD1A030027943791B02134316
:10C37C00234303711B0A43712000FFF785FF10E074
:10C38C00002D0DD1A030027943791B021343A34336
:10C39C0003711B0A43712000FFF776FF013500E0A3
:10C3AC0000252000FFF770FF280070BD70B5050058
:10C3BC000E0000F0FDFE0400012E19D1AEB23000CB
:10C3CC00FFF754FF164B1B5CFF2B21D000212800DC
:10C3DC00FFF7C2FFA034A378E07800021843304383
:10C3EC00A070000AE0702800FFF74EFF012412E055
:10C3FC00002E0FD1A034A278E3781B021343AB4379
:10C40C00A3701B0AE3702800FFF73EFF012402E033
:10C41C00002400E000242800FFF736FF200070BD48
:10C42C004800002070B505000C0000F0C1FE0600AD
:10C43C00A023C25C0300A0335B781B0213432B4088
:10C44C009D4233D10300A0339A78DB781B0213434F
:10C45C002B422DD10300A0331A795B791B021343B5
:10C46C002B409D4226D12800FFF700FF2388002B8C
:10C47C000CD1A036B371F3714200104BD15A80002D
:10C48C000F4BC058FBF78CF9012016E0012B13D190
:10C49C00A036B3710023F3714200084BD15A8000CF
:10C4AC00074BC058FBF76EF9012006E0002004E0B2
:10C4BC00002002E0002000E0012070BD803B010064
:10C4CC005400002010B5FBF757F8FBF759F8FBF7B1
:10C4DC0063F80028FBD1FBF759F810BD70B50400C8
:10C4EC000E0000F065FE050000233380A033C25C13
:10C4FC000300A0335B781B02134323409C4232D1D0
:10C50C002000FFF7B3FE2B00A0339A78DB781B02D8
:10C51C00134323409C4208D1154B185CFF2824D0B0
:10C52C00FFF7D0FF3080012020E0A0352A796B790D
:10C53C001B02134323409C4209D182000D4BD3585C
:10C54C0040000D4A815A1800FBF714F908E08200EC
:10C55C00084BD25843000849595A1000FBF702F90E
:10C56C003080012002E0002000E0012070BDC046B8
:10C57C004800002054000020803B010070B50400EE
:10C58C000D0000F015FE8023DB009C421DD1012D17
:10C59C000DD145308379002B05D18021C900842031
:10C5AC00C005FBF7FDF8002002F0C4FE2AE0453080
:10C5BC008379002B05D18021C9008420C005FBF7AD
:10C5CC00E1F8002002F0C6FE1CE0022C1AD1012D6D
:10C5DC000CD14530C379002B04D102218420C00535
:10C5EC00FBF7DEF8012002F0A5FE0BE04530C37925
:10C5FC00002B04D102218420C005FBF7C3F80120D5
:10C60C0002F0A8FE70BDC04670B5040000F0D0FD6D
:10C61C008023DB009C4213D145308379002B07D15A
:10C62C008021C9008420C005FBF79CF805001AE0A6
:10C63C008021C9008420C005FBF79CF8050012E09E
:10C64C00022C10D14530C379002B06D10221842055
:10C65C00C005FBF787F8050005E002218420C00522
:10C66C00FBF780F80500280070BDC04670B580252A
:10C67C00ED008424E4050123012229002000FBF7AE
:10C68C00CFF829002000FBF77DF870BD10B584248D
:10C69C00E4050123012202212000FBF7C1F802214D
:10C6AC002000FBF76FF810BD70B58025ED008424D9
:10C6BC00E4050123012229002000FBF7B1F8290031
:10C6CC002000FBF76DF870BD10B5012806D1802154
:10C6DC00C9008420C005FBF755F805E08021C9008E
:10C6EC008420C005FBF75CF810BDC04610B50123D3
:10C6FC00002202218420C005FBF792F810BDC04631
:10C70C0010B500F055FD0400030045339B79002B58
:10C71C0002D1FFF7ABFF01E0FFF7C6FF4534E37929
:10C72C00002B02D1FFF7B2FF01E0FFF7DFFF10BDD6
:10C73C0010B500F03DFD0400FFF7E2FF4534A3798E
:10C74C00012B02D10120FFF7BFFF0120FFF75CFD99
:10C75C00002802D00120FFF797FD0220FFF754FDBF
:10C76C00002802D00220FFF78FFD0420FFF74CFDBC
:10C77C00002802D00420FFF787FD0820FFF744FDB6
:10C78C00002802D00820FFF77FFD10BD10B5022154
:10C79C008420C005FAF7E6FF10BDC04610B502F0C4
:10C7AC003FFD0400094A127890420ED0002805D1B2
:10C7BC0001218020C000FFF7E1FE04E00021802071
:10C7CC00C000FFF7DBFE014B1C7010BD68000020A1
:10C7DC0010B5084A138801339BB21380064A934262
:10C7EC0007D90022034B1A80FFF7D8FF0122034B15
:10C7FC001A7010BDFC080020E7030000F9080020A7
:10C80C0070B50D00110001280CD0002804D00228AE
:10C81C000ED0032812D016E006220C48FFF72CFC91
:10C82C00040010E01A000A48FFF726FC04000AE096
:10C83C001A002800FFF720FC040004E01A0028006E
:10C84C00FFF71AFC0400200070BDC04600FE030078
:10C85C0000FF030070B50400062812D88300184AA4
:10C86C00D3589F461748FFF721FC0AE01648FFF7FC
:10C87C001DFC06E08025AD0203E0002501E0E0256B
:10C88C00ED01A31EDBB2012B0BD806E020034019EF
:10C89C00FFF734FC0134A4B200E00024182CF5D9C5
:10C8AC000CE0062C0AD106E020024019FFF7FEFB33
:10C8BC000134A4B200E001246F2CF5D970BDC04640
:10C8CC00B83B010000FE030000FF0300F8B50F00A9
:10C8DC0015001E0006281DD880000F4B1B589F46C4
:10C8EC000020FFF7B7FF062229000C48FFF714FCC5
:10C8FC0004000FE00120FFF7ADFF320029000848CB
:10C90C00FFF70AFC040005E0320029003800FFF7AD
:10C91C0003FC04002000F8BDD43B010000FE030022
:10C92C0000FF030010B586B0802252010F4B1A6035
:10C93C000F4C2000FAF740FEFAF768FDFA21890047
:10C94C0003F07CF9019001230293002205920392DB
:10C95C00049301A92000FAF77BFE01212000FAF7CD
:10C96C0057FE2000FAF768FE06B010BD00E100E0AB
:10C97C000010004010B53348FAF75AFE002858D082
:10C98C003048FAF751FE304A138801339BB21380BA
:10C99C002E4A136801331360FEF7A2FF02F088FAE7
:10C9AC00FFF780F82A4B1B78002B0BD0294B1B6808
:10C9BC00013304D0274A13680133136002E00022CC
:10C9CC00244B1A60244B1B78002B01D0FFF700FF7F
:10C9DC001D4B1B889BB2214A934211D900221A4B42
:10C9EC001A801F4A13780133DBB21370FFF718F863
:10C9FC00FCF752FAFBF7A2FB1A4A136801331360D7
:10CA0C00174B1B78DBB23B2B07D90022144B1A7047
:10CA1C00154A13780133DBB21370134B1B78DBB25E
:10CA2C003B2B06D90022104B1A70104A13680133A5
:10CA3C0013600F48FAF7FCFD002802D00C48FAF7F7
:10CA4C00F3FD10BD00100040D6030020DC030020D5
:10CA5C0074000020E003002092030020E603000095
:10CA6C00E4030020E8030020E5030020D8030020A5
:10CA7C0020100040012802D10022024B1A60024B08
:10CA8C0018707047E003002074000020014B1868F8
:10CA9C007047C046E003002070B5040000F088FB2E
:10CAAC0010212000FAF768FF002837D01C4A1388A1
:10CABC001C490888C0181C4B1B88C01A01381188E7
:10CACC0089B203F02BFA002906D12000FAF73EFFB9
